:020000040800F2
:10000000005000200D750008897000088D700008F0
:1000100091700008957000089970000800000000B9
:10002000000000000000000000000000F12F0008A8
:100030009D7000080000000081300008A1700008D9
:100040005575000855750008557500085575000868
:100050005575000855750008557500085575000858
:100060005575000855750008557500085575000848
:100070005575000855750008557500085575000838
:100080005575000855750008557500085575000828
:10009000A5700008557500085575000855750008CD
:1000A0005575000855750008557500085575000808
:1000B0005575000855750008B170000855750008A1
:1000C00055750008557500085575000855750008E8
:1000D00055750008BD700008557500085575000875
:1000E000557500085575000855750008000000009A
:1000F0000000000000000000000000000000000000
:0C01000000000000000000005FF808F1A3
:1001100010B5054C237833B9044B13B10448AFF341
:1001200000800123237010BDF000002000000000BB
:10013000A075000808B5034B1BB103490348AFF392
:10014000008008BD00000000F4000020A075000839
:10015000034A044B11681B780B441360704700BFBF
:10016000B40E002000000020014B1868704700BF4B
:10017000B40E0020184B70B4DC68C4F30224C4F140
:100180000706042E04F1040328BF0426062B17D902
:100190000125033CA540013D2A400123B340013B1A
:1001A0001940A140002841EA02010CDB090100F1DD
:1001B0006040C9B200F5614080F8001370BC704720
:1001C00000221446E9E7054B00F00F000901C9B20F
:1001D0000344197670BC704700ED00E0FCEC00E0D1
:1001E000012300F01F01034A40098B4042F82030F0
:1001F000704700BF00E100E00138B0F1807F0DD210
:1002000030B4F02500220721054B064C586084F8D5
:100210002350104630BC9A60196070470120704727
:1002200010E000E000ED00E0044A042813680CBF71
:1002300043F0040323F004031360704710E000E070
:1002400038B590F82130022B04D0042201248263B7
:10025000204638BD03681D491A688B4222F00E0201
:100260001A601A6822F001021A6021D0184A9342DB
:100270001CD0143293421FD0143293421FD0143238
:1002800093421FD0143293420CBF4FF480134FF0AF
:100290008073012100240F4D426B6B6080F82110A8
:1002A00080F8204032B19047204638BD1023F0E757
:1002B0000123EEE71446CBE74FF48073E9E74FF4F0
:1002C0008053E6E74FF48033E3E700BF08000240C5
:1002D0001C000240000002402DE9F04F4FF00008E2
:1002E00085B043466FF01F06DFF8DCE1DFF8DCC1C4
:1002F0006F4F009005E00133102B06F1040600F06B
:10030000898001220C689A401440A242F3D14D68C2
:10031000122D00F0A38000F28C80022D00F0A58049
:1003200040F28180032D00F09D80112D02D1CA681A
:1003300002F10408FF2C70D8009A4FEA830A914614
:1003400012680F2505FA0AFB22EA0B0208FA0AFADC
:1003500042EA0A02C9F80020D1F804A01AF0805F2E
:10036000C9D0DEF8189023F0030249F00109CEF855
:100370001890DEF8189002F1804209F00109CDF8DA
:100380000C9002F5803203F00309DDF80CB04FEA5F
:100390008909D2F808B005FA09F52BEA05000190A1
:1003A0000098604577D0434DA84277D0424DA8428F
:1003B00079D0424DA8420CBF4FF0030B4FF0040B15
:1003C0000BFA09F901981AF4803F40EA0905956093
:1003D0003A6803F1010314BF2243A2433A607A68EA
:1003E0001AF4003F14BF2243A2437A60BA681AF499
:1003F000801F14BF2243A243BA60FA681AF4001F98
:1004000014BF144322EA0404102BFC6006F1040616
:100410007FF477AF05B0BDE8F08F0098B246426830
:1004200000F104098DE7A5B1012D83D1D1F80C802D
:1004300080E7234885420CD01BD92248854208D04A
:1004400000F58030854204D0DFF884904D457FF47C
:1004500071AF8D68BDB94FF004086BE7CA6802F14F
:100460000C0867E74FF0000864E7CA6802F1080863
:1004700060E7DFF860904D45EBD009F580394D45D8
:100480007FF458AFE5E70098012D0CBF026142618F
:100490004FF008084EE74FF0000993E74FF0010BCB
:1004A0000BFA09F98EE74FF0020B0BFA09F989E70D
:1004B00000040140000C0140001001400014014004
:1004C000000021100000311000100240000801401F
:1004D000000022100000111002B9090401617047E8
:1004E000002800F0F0812DE9F04F90F8293487B012
:1004F000044603F0FF02002B00F0E0814FF00308F8
:1005000027466D4684F82984206801F079FB57F866
:10051000106B4FF0040A0FCF0FC53B68221D2B60F4
:100520000ECA304601F05AFB0021206801F072FB30
:10053000002501264FF0020B4FF005094FF007018F
:1005400084F8888084F8296084F8496084F84860D9
:1005500084F8696084F8896084F8A96084F8C960C7
:1005600084F8285084F82B50A563E563256484F84B
:100570004B50A565E565256684F86B50A567E56772
:10058000C4F8805084F88B50C4F89850C4F89C503C
:10059000C4F8A05084F8AB50C4F8B850C4F8BC50AC
:1005A000C4F8C05084F868B084F8A8A084F8C89053
:1005B00084F8CB5084F808114FF00A010620082275
:1005C000092384F868114FF00B0184F8E80084F8DF
:1005D000282184F84831C4F8D850C4F8DC50C4F855
:1005E000E05084F8E96084F8EB50C4F8F850C4F89F
:1005F000FC50C4F8005184F8096184F80B51C4F828
:100600001851C4F81C51C4F8205184F8296184F8A9
:100610002B51C4F83851C4F83C51C4F8405184F807
:10062000496184F84B51C4F85851C4F85C51C4F87E
:10063000605184F8696184F86B51C4F87851C4F84A
:100640007C51C4F8805184F888114FF00C0184F873
:10065000A8114FF00D0184F8C8114FF00E0184F875
:10066000E8114FF0070184F8896184F88B51C4F8D0
:100670009851C4F89C51C4F8A05184F8A96184F839
:10068000AB51C4F8B851C4F8BC51C4F8C05184F897
:10069000C96184F8CB51C4F8D851C4F8DC51C4F80E
:1006A000E05184F8E96184F8EB51C4F8F851C4F8DA
:1006B000FC51C4F8005284F8295284F82852A586C7
:1006C00084F82B52C4F83852C4F83C52C4F8405253
:1006D00084F8495284F8486284F88882A4F89480A7
:1006E000A4F8546084F84B52C4F85852C4F85C52D1
:1006F000C4F8605284F8695284F868B2A4F874B0FF
:1007000084F86B52C4F87852C4F87C52C4F8805212
:1007100084F8895284F88B52C4F89852C4F89C52D9
:10072000C4F8A05284F8A95284F8A8A2A4F8B4A0EE
:1007300084F8AB52C4F8B852C4F8BC52C4F8C052E2
:1007400084F8C95284F8C892A4F8D49084F8CB52A3
:10075000C4F8D852C4F8DC52C4F8E05284F8081344
:100760004FF00701A4F814114FF00A0184F8681340
:100770004FF00A01A4F874114FF00B0184F8E8025D
:10078000A4F8F40084F82823A4F8342184F848332A
:10079000A4F8543184F8E95284F8EB52C4F8F852C2
:1007A000C4F8FC52C4F8005384F8095384F80B537E
:1007B000C4F81853C4F81C53C4F8205384F82953C0
:1007C00084F82B53C4F83853C4F83C53C4F840534E
:1007D00084F8495384F84B53C4F85853C4F85C5315
:1007E000C4F8605384F8695384F86B53C4F87853A1
:1007F00084F888134FF00C0184F8A8134FF00D0112
:1008000084F8C8134FF00E01A64684F8E8134FF0A1
:100810000B01C4F8805384F8895384F88B53C4F8CF
:10082000A05384F8A95384F8AB53C4F8C05384F898
:10083000C95384F8CB53C4F8E05384F8E95384F8DF
:10084000EB53C4F800545EF8108BA4F894114FF0E9
:100850000C01A4F8B4114FF00D01EC46A4F8D4112A
:100860004FF00E01C4F87C53C4F89853C4F89C535D
:10087000C4F8B853C4F8BC53C4F8D853C4F8DC5314
:10088000A4F8F411C4F8F853C4F8FC53BEE80F0000
:10089000ACE80F003B6804EB0A02CCF800300ECA4B
:1008A000404601F0B9F984F82450206884F829649E
:1008B00001F0DEFD284607B0BDE8F08F80F828245F
:1008C00006F046FC1AE60120704700BF90F8282485
:1008D000012A01D102207047012110B5044680F899
:1008E000281406F059FD206801F0C0FD206801F0D1
:1008F0007DF9002084F8280410BD00BF2DE9F04FD9
:10090000044683B0006801F0B5FD020444D42068B9
:1009100001F0B0FD460500F10582206801F0AAFD56
:1009200010F4804F206807D0B0F8443023F480439F
:100930001B041B0CA0F8443001F09CFD10F4005F78
:10094000206807D0B0F8443023F400531B041B0C7C
:10095000A0F8443001F08EFDC50400F1C581206887
:1009600001F088FD000500F19E81206801F082FD04
:10097000820500F18B81206801F07CFDC30508D55C
:100980002268B2F8443023F480731B041B0CA2F8D5
:10099000443003B0BDE8F08F00232068DFF8D8842E
:1009A000DFF8D8A4DFF8D8B4ADF80430ADF80630DD
:1009B000B0F844309BB21F04ADF80430A8D5BDF8A0
:1009C000045015F00F0552D1BDF80410038811F042
:1009D00010019BB200F09080ADF80630BDF80630F3
:1009E0001B0500F13381BDF806301F04E0D540F649
:1009F0008F73028813400380B0F8503094F8282297
:100A00009BB203EBC20300EB4303D3F80C34C3F3F4
:100A10000903C4F84432002B40F013820021204621
:100A200006F0BCFB2068D4F83812B0F850303E29EC
:100A30009BB200F5806503F1060340F2CA81C1F361
:100A40004F12CE0604BF02F1FF3292B24BEA82226D
:100A500092B245F8132003889BB203EA0A0383F499
:100A6000405343F4004343F080030380A0E730F891
:100A700025309BB2ADF80630BDF806301A0478D4A4
:100A8000BDF806301B0693D530F825306E019BB2B9
:100A900003EA080320F82530A11991F83230002B21
:100AA00040F0B280B0F8503091F828209BB203EBB0
:100AB000C203023300F5806252F81330C3F3090316
:100AC0004B64002B40F07D812644B0F8503096F8FE
:100AD00028109BB203EBC103023352F81330F26BC0
:100AE000C3F30903356C1A447364F26355BB2046A3
:100AF00006F05CFB20685BE703EA08030380B0F8BC
:100B0000503094F828209BB203EBC20300EB430063
:100B1000D0F80434E26BC3F309031A446364E2635C
:100B2000204606F043FB94F8243003B3236CF3B95A
:100B300094F82420206842F08002A0F84C2084F829
:100B4000243035E74FF0000E012796F8286006F0B4
:100B50007F0671016318283183F82860DA631D6409
:100B60002144C3F844E083F8297001F0E5FA2068D5
:100B70001EE740F68F7330F825206E01134020F8F1
:100B8000253004EB060999F83232002B00F0E8809A
:100B900099F8283230F8231000EB830211F4804FCB
:100BA000B0F8501089B201EBC30300EB430300F02F
:100BB0001B81D3F80474C7F30907002F40F0578155
:100BC00040F60F7311880B4043F4004343F0C00319
:100BD0001380A319D3F84412D3F83C22D3F840026F
:100BE00039443A44C3F84412C3F83C2220B1D3F844
:100BF00038128F4280F00C812644204696F8281245
:100C000006F0CCFA20683BE791F8282004EB451564
:100C100030F8223013F0400FB0F850309BB203EBA5
:100C2000C20300F0B580023300F5806252F8133041
:100C3000C3F309036B64002B00F0B480CA8DC96B49
:100C400001F01EFC206800F58062ABE0B0F8503087
:100C500094F828229BB203EBC20300EB4303D3F8C2
:100C60000C34B4F82C22C3F30903C4F8443204F260
:100C70002C4101F017FC40F68F7322682046118842
:100C80000B40138006F084FA206891E62268204623
:100C9000B2F8443023F400731B041B0CA2F8443058
:100CA00006F08CFA67E62368B3F84020184692B243
:100CB00042F00802A3F84020B3F8442022F4006276
:100CC0001204120CA3F84420B3F8402092B242F070
:100CD0000402A3F8402001F0CDFBC1043FF545AE6E
:100CE000204606F07DFA40E622682046B2F8403001
:100CF00023F004031B041B0CA2F84030B2F8403070
:100D000023F008031B041B0CA2F8403006F078FA0D
:100D10002068B0F8443023F480531B041B0CA0F867
:100D200044301DE622682046B2F8443023F4806344
:100D30001B041B0CA2F8443006F044FA94F8283443
:100D4000012B3FF4EAAD0025012384F8245084F8F8
:100D500028342946206801F083FB84F82854DCE518
:100D6000B0F8503099F828229BB203EBC20300EB95
:100D70004303D3F80C74C7F30907002F3FF429AFDE
:100D80003B46B9F82C22D9F83C1201F08BFB20E746
:100D9000063300F5806252F81330C3F309036B6425
:100DA000002B5CD140F60F73A11991F8281030F890
:100DB00021502B4043F4404343F0800320F821307E
:100DC00082E68A8DC96B01F05BFB206800F58062CA
:100DD0007AE6C1F34F02C90744BF013292B29202D0
:100DE00092B245F8132036E6D3F80C74C7F309071E
:100DF000002F3FF4E5AE3B46B9F83022D9F83C125B
:100E000001F050FB99F82832226802EB8302D7E602
:100E1000002793F8286206F07F067101631801F538
:100E20000A71C3F8400283F82862C3F83C222144C7
:100E3000C3F8447283F82972206801F07DF92068B4
:100E40001EE6B4F82C22D4F83C1201F02BFBD4F8A7
:100E50003C32D4F844221344C4F83C32DEE50A8E16
:100E6000C96B01F00DFB206800F580629AE73B46F4
:100E7000B9F82E22C2E700BF0F8FFFFF8FBFFFFF21
:100E80000080FFFF90F82824012A01D1022070473A
:100E900010B50446012284F8241080F82824006844
:100EA00001F0DEFA002084F8280410BD38B54CB2F9
:100EB000002C05461DDB00EB411000F50A70E40F25
:100EC000022A4470017012D0C37095F82834026170
:100ED000012B01D1022038BD0123014685F82834B9
:100EE000286800F0B3FE002085F8280438BD00BE55
:100EF000EAE701F07F0100EB41102830DFE700BF97
:100F00004AB2002A10B5044617DB00EB411303F583
:100F10000A73D20F5A70197094F82824012A01D14B
:100F2000022010BD0122194684F82824206801F00F
:100F300025F8002084F8280410BD01F07F0100EBA3
:100F400041132833E5E700BF70B5002601F07F01AB
:100F50004D01441905F50A7584F82812C4F83C229D
:100F60004119C4F840320068C4F8446284F8296228
:100F700001F0E2F8304670BDF8B50026012701F017
:100F80007F014D014419283584F82810E263411986
:100F90002364006884F82970666401F0CDF8304657
:100FA000F8BD00BF38B54BB2002B0C46054618DB28
:100FB00000EB411101F50A710122DB0F4B700C703F
:100FC0008A7095F82834934201D1022038BD85F803
:100FD0002824286801F0BAF94CB1002085F82804CB
:100FE00038BD01F07F0400EB44112831E4E705F23D
:100FF0002C41286801F042FAEFE700BF4AB2002A0C
:1010000038B5054619DB00EB411303F50A730024DC
:10101000D20F5A7019709C7095F82824012A01D1BA
:10102000022038BD0122194685F82824286801F0DD
:10103000C7F985F82844204638BD01F07F0100EB50
:1010400041132833E3E700BF11F0800F0CD001F00B
:101050007F0100EB4110283062B10122190CC380DE
:10106000018182720020704700EB411000F50A7088
:10107000002AF2D183808272002070472DE9F0416E
:10108000036882B0DD07044630D5AD494A6802F0F6
:101090000C02042A00F0FA804A6802F00C02082AC6
:1010A00000F0F0806368B3F5803F00F07481002B9E
:1010B00000F00481B3F5A02F00F0A981A04B1A68BD
:1010C00022F480321A601A6822F480221A60FFF734
:1010D0004BF89B4D064605E0FFF746F8801B642859
:1010E00000F217812B689A03F6D523689F0728D54D
:1010F000934A516811F00C0F00F0A980516801F07B
:101100000C01082900F09F802369002B00F0328138
:1011100001228C4B8A4D1A60FFF726F8064605E03F
:10112000FFF722F8801B022800F2F3802B68980753
:10113000F6D52B68626923F0F80343EAC2032B60FB
:1011400023681A075DD45D073AD57D4BDA69D00074
:1011500000F1A6800125DA6942F08052DA61DB698C
:1011600003F080530093009B774B1A68D10540F140
:10117000BF80E368012B00F01481002B00F0CD80CC
:10118000052B6F4B1A6A00F04F8122F001021A62A0
:101190001A6A22F004021A62FEF7E6FF684E8046E1
:1011A00041F2883706E0FEF7DFFFA0EB0800B84207
:1011B00000F2AF80336A9B07F5D5002D40F0F78031
:1011C000E369D3B15E4D6A6802F00C02082A45D08B
:1011D000022B4FF000025D4B00F0EF801A60FEF72B
:1011E000C3FF2C46054605E0FEF7BEFF401B022864
:1011F00000F28F8023689B01F6D4002002B0BDE886
:10120000F081A369002B2DD00122514B4C4D1A6067
:10121000FEF7AAFF064604E0FEF7A6FF801B0228A1
:1012200077D86B6A9B07F7D54A4B4B4A1B68A2FBE2
:1012300003235B0A019300BF019B5A1E0192002BFE
:10124000F9D123687FE75268D6033FF55DAF3C4A8A
:101250001268950726D52269012A23D0012002B001
:10126000BDE8F0813A4A364D1360FEF77DFF064631
:1012700004E0FEF779FF801B02284AD86B6A9F07BB
:10128000F7D4DEE74A68D0037FF50CAF2C4A12682A
:1012900091037FF52BAF6268002A7FF427AFDDE76B
:1012A000002561E7264960690A6822F0F80242EAEF
:1012B000C0020A601A077FF546AFA2E703F1804338
:1012C00003F504331A681D4622F480321A601A6846
:1012D00022F480221A60FEF747FF064604E0FEF77C
:1012E00043FF801B642814D82B689B03F7D4FCE6CB
:1012F0001A681E4642F480721A60FEF735FF0746F0
:101300003368DA053FF535AFFEF72EFFC01B6428C2
:10131000F6D9032002B0BDE8F08103F1804303F564
:1013200004331A6A1E4622F001021A621A6A41F256
:10133000883822F004021A62FEF716FF074612E010
:101340000010024000004242007000406000424233
:101350008004424284000020D34D6210FEF704FF57
:10136000C01B4045D5D8336A9807F7D4002D3FF409
:1013700027AF1CE0344A354D1360FEF7F5FE0646F4
:1013800004E0FEF7F1FE801B0228C2D82B68990703
:10139000F7D42368D5E62D4A136843F480331360ED
:1013A00095E62A4A136A43F001031362F4E6274ADA
:1013B000D36923F08053D36102E71A60FEF7D4FEAD
:1013C000064604E0FEF7D0FE801B0228A1D82B6859
:1013D0009901F7D4226AB2F5803F2DD001251B4B2D
:1013E000606A5968024321F4741119480A435A602B
:1013F00005601C46FEF7B8FE054604E0FEF7B4FEA5
:10140000401B022885D823689A01F7D5F5E603F139
:101410008043A3F53C331A6842F480221A601A68AC
:1014200042F480321A6052E642F004021A621A6AEA
:1014300042F001021A62AFE66B68A16823F4003340
:101440000B436B60CAE700BF00004242001002403D
:1014500060004242654A136803F007038B420BD2D7
:10146000136823F007030B431360136803F00703AB
:10147000994201D0012070472DE9F041036886B000
:101480009A0706D55A4C8568626822F0F0022A4312
:101490006260DB0706460C4624D54268544B012A9D
:1014A0001B6800F09280022A00F08780980729D5F7
:1014B0004F4D41F288386B6823F0030313436B6090
:1014C000FEF752FE73680746012B65D0022B05D14B
:1014D0006DE0FEF749FEC01B404572D86B6813F003
:1014E0000C0FF6D1414A136803F007039C420DD25A
:1014F000136823F0070323431360136803F0070303
:101500009C4203D0012006B0BDE8F0813368590742
:1015100006D53749F0684A6822F4E06202434A601F
:101520001A0707D5324A3169536823F4605343EAF6
:10153000C1035360012602252E4B06AF0FCB07E9EE
:101540000F002B4C8DF804608DF80550626802F096
:101550000C03082B0AD1C2F383433B4413F8101C3D
:10156000D30336D4244B03FB01F300E0234B204A82
:10157000234852682349C2F30312825C0020D340FF
:101580000B6005F043FD002006B0BDE8F081FEF7DA
:10159000EBFDC01B404514D86B6803F00C03042B13
:1015A000F5D19FE7FEF7E0FDC01B404509D86B6809
:1015B00003F00C03082BF5D194E79D013FF578AFBC
:1015C000A0E7032006B0BDE8F0819F033FF570AFB0
:1015D00098E76268094BC2F3404203FB01F33A44C7
:1015E00012F8142CB3FBF2F3C1E700BF0020024055
:1015F00000100240B875000800093D0000127A0092
:10160000F875000884000020014B1868704700BF7F
:1016100084000020044B05495B68054AC3F302239C
:10162000CB5C1068D8407047001002400876000874
:10163000840000200F220D4B02605A6810B402F0A3
:10164000030242605A680A4C02F0F00282605A6853
:1016500002F4E062C2605B68DB0803F4E0630361EC
:10166000236810BC03F007030B60704700100240B2
:10167000002002402DE9F0410446006882B0C30713
:1016800027D53B4BDA69D7003BD53A4B00251A6882
:10169000D60544D5364A136A13F440730FD06168F7
:1016A00001F4407083420BD001270026136A3249AF
:1016B00023F440700F600E60D907106246D4616851
:1016C0002B4A136A23F440730B431362002D38D165
:1016D000206883070DD410F0100007D00020244AA2
:1016E000E168536823F480030B43536002B0BDE804
:1016F000F0811F4AA168536823F440430B435360B1
:10170000E9E7DA69012542F08052DA61DB6903F02A
:1017100080530193019B174B1A68D605BAD41A68F7
:101720001E4642F480721A60FEF71EFD07463368BB
:10173000D805AFD4FEF718FDC01B6428F7D90320E5
:10174000D4E7D36923F08053D361C1E71646FEF78F
:101750000BFD41F28837804605E0FEF705FDA0EB62
:101760000800B842EBD8336A9A07F6D5A7E700BF5E
:10177000001002400070004040044242704700BF29
:1017800000284AD038B590F83D30044603F0FF02F7
:1017900053B302232268224984F83D308A421368F9
:1017A00027D0B2F1804F16D0A1F594318A4212D0E1
:1017B00001F580618A420ED0A569E068616823F076
:1017C00080032B431360D062916201230020536198
:1017D00084F83D3038BDA16823F070030B432169C4
:1017E00023F440730B43E7E780F83C20FFF7C6FF84
:1017F000CFE7A16823F070030B43216923F4407302
:101800000B43A16923F080030B431360E368D362A9
:101810006368936263691363D7E70120704700BF71
:10182000002C014003680020DA6842F00102DA600F
:101830001A6842F001021A60704700BF704700BF8B
:10184000704700BF704700BF704700BF036810B506
:101850001A690446910702D5DA68920762D41A69B8
:10186000500702D5DA68510749D41A69120702D520
:10187000DA68100731D41A69D20602D5DA68D006C0
:1018800018D41A69D10702D5DA68D2076BD41A695D
:10189000100602D5DA6811066DD41A69520602D50F
:1018A000DA68500657D41A69910602D5DA689206AA
:1018B00049D410BD6FF0100108221961DB69204680
:1018C00013F4407F227761D1FFF7B8FF2046FFF77E
:1018D000B9FF002223682277D3E76FF008010422C2
:1018E0001961DB6920469907227755D1FFF7A6FFDA
:1018F0002046FFF7A7FF002223682277BBE76FF09F
:101900000401022219619B69204613F4407F22776B
:101910003FD1FFF793FF2046FFF794FF0022236893
:101920002277A2E76FF00201012219619B69027719
:101930009B0728D1FFF782FF2046FFF783FF002295
:10194000236822778BE76FF020022046BDE8104025
:101950001A6100F025B86FF0400220461A61FFF7C7
:1019600073FF23689FE76FF0010220461A6105F0BC
:1019700041FB23688BE76FF0800220461A6100F07C
:1019800011F8236889E7FFF75BFFD8E7FFF758FFF7
:101990009FE7FFF755FFC1E7FFF752FFABE700BF37
:1019A000704700BF704700BF704700BF704700BF5F
:1019B0008368B3F5805F2CD0036973B10368826AD2
:1019C0005B68511C03F07F0381621370C38D013B80
:1019D0009BB2C38543B1002070470268836A526896
:1019E000591C81621A70F1E710B520240268D16891
:1019F00021F02001D160D16821F48071D16051695A
:101A000021F00101516180F83A40FFF7CFFF00203B
:101A100010BD0269836A3AB902685268C2F30802CB
:101A200023F8022B8362D1E702685268D2B223F80E
:101A3000012B8362CAE700BF704700BF036870B51F
:101A40001A6804461607DD6859694AD011F0010189
:101A500053D0D60705D5E80503D5E06B40F001006B
:101A6000E06356077BD5002900F08580E16B900785
:101A700041F00201E16377D5E16B41F00401E163DC
:101A8000110773D4E16B00292AD0910605D5AA0667
:101A900003D594F83A20222A7DD05D69E16B0E07C8
:101AA00002D415F040057BD02021DA6822F4907230
:101AB000DA605A6922F001025A6184F83A105A69D0
:101AC00055065FD55A69616B22F040025A610029C0
:101AD00058D03C4B08464B63FEF7B2FB002855D16B
:101AE00070BD96060CD5A9060AD590F83A30222B7F
:101AF000F6D1BDE87040FFF75BBF15F4907FA8D129
:101B000010060ED45606EBD56D06E9D52021DA680D
:101B1000204622F04002DA6084F83910FFF744FFD3
:101B200070BD2906EED594F83920212AD8D1A268B3
:101B3000B2F5805F226A38D0511C216212785A6057
:101B4000E28C013A92B2E284002AC9D1DA6822F02A
:101B50008002DA60DA6842F04002DA6070BD96070F
:101B60000BD5002988D18DE711078BD5E16B41F0AA
:101B70000801E16386E7900784D4100782D5002925
:101B800080D0F3E72046FFF757FF70BD606BBDE8DC
:101B90007040436B18472046FFF70AFF23687CE735
:101BA0002046FFF749FFE56370BD11882069C1F346
:101BB0000801596010B902322262C1E70132226283
:101BC000BEE700BFC91B0008002208B5436ADA85DA
:101BD0001846DA84FFF730FF08BD00BF84B001A8C3
:101BE00080E80E0004B00020704700BF0246B0F845
:101BF000403000209BB243F43F43A2F8403070478E
:101C000044F2FF230246B0F8401000200B40A2F837
:101C1000403070470020704784B070B404460125FE
:101C20000020A4F84050A4F84000A4F84400A4F810
:101C30005000B4F8405004AEADB245F43F45A4F8AE
:101C4000405086E80E0070BC04B07047CB7870B48A
:101C5000032B10D8DFE813F06701590104004B0192
:101C60000A7830F8223023F4EC4323F070031B048D
:101C70001B0C20F8223040F60F740A7830F822301E
:101C800042F40045234045F080052B4320F82230E4
:101C90008B7A002B34D14B78002B00F0E080B0F829
:101CA00050300D788A889BB203EBC503520800EBD5
:101CB00043035200C3F800240D7830F8253000EBC0
:101CC00085025B060BD530F825301C4044F40044F7
:101CD00044F0C00420F825400A7800EB8202138803
:101CE000002070BC23F4E04323F040031B041B0CD2
:101CF00083F0200343F4004343F0800313807047D4
:101D000040F60F630A7800F5806530F822603340B2
:101D100043F4014343F0800320F82230B0F8502010
:101D2000CE880B7892B2760802EBC3027600B0F848
:101D3000503045F812600A890E789BB2043352087D
:101D400003EBC603520045F813204B78002B49D112
:101D50000B7830F8235000EB83026D040BD530F87C
:101D60002320144044F4404444F0800420F82340ED
:101D70000A7800EB820213885E060BD540F60F73DB
:101D80001488234043F4004343F0C00313800A78CF
:101D900000EB820240F60F7448F2800513881C4065
:101DA00044F4004444F0C00414800A7830F822302F
:101DB00023F4804323F070031B041B0C83F4405373
:101DC0002B4320F822300A7830F8223023F4E04305
:101DD00023F040031B041B0C2B4320F8223070BC63
:101DE000002070470B7830F8235000EB83026D041D
:101DF0000BD530F82320144044F4404444F08004D0
:101E000020F823400A7800EB820213885B0600F179
:101E1000988040F60F7448F2800513881C4044F403
:101E2000404444F0800414800A7830F8223023F4CF
:101E3000E04323F040031B041B0C2B4320F822300B
:101E40000A7830F8223023F4804323F070031B0417
:101E50001B0C2B4320F8223070BC00207047B0F8D8
:101E600050208C880B7892B20432640802EBC302D3
:101E7000640000F58065B0F8503045F812400A69FA
:101E80000C789BB206333E2A03EBC40366D8C2F338
:101E90004F04D20744BF0134A4B2A402A4B245F84F
:101EA00013400C7830F8243000EB84025E040DD52A
:101EB00040F60F7330F82420134043F4404343F0BE
:101EC000800320F824300A7800EB82021388002077
:101ED00070BC23F4804323F070031B041B0C83F4B9
:101EE000405343F4004343F08003138070470A7863
:101EF00030F8223023F4EC4323F070031B041B0C56
:101F000043F4C06320F82230B5E60A7830F8223076
:101F100023F4EC4323F070031B041B0C43F4806395
:101F200020F82230A7E60A7830F8223023F4EC4378
:101F300023F070031B041B0C43F4007320F82230C1
:101F400099E640F60F731488234043F4004343F0AE
:101F5000C00313800A7800EB82025AE7C2F34F14E1
:101F6000D60604BF04F1FF3294B2034A42EA842247
:101F700092B245F8132094E70080FFFF8B7A30B4CB
:101F80003BBB4B780C78002B00F0AE8030F824304F
:101F900000EB84025B060DD540F60F7330F8242069
:101FA000134043F4004343F0C00320F824300A7880
:101FB00000EB8202138823F4E04323F040031B0468
:101FC0001B0C43F4004343F08003002030BC13801B
:101FD00070474B78002B49D10B7830F8234000EB49
:101FE000830264040DD540F60F7230F8234022407E
:101FF00042F4404242F0800220F823200A7800EBAD
:10200000820213885D060BD540F60F7314882340B7
:1020100043F4004343F0C00313800A7800EB8202CC
:1020200040F60F7448F2800513881C4044F40044C5
:1020300044F0C00414800A7830F8223023F480433E
:1020400023F070031B041B0C2B4320F822300A786A
:1020500030F8223023F4E04323F040031B041B0C30
:102060002B4320F8223030BC002070470B7830F82A
:10207000234000EB830264040DD540F60F7230F864
:102080002340224042F4404242F0800220F82320C4
:102090000A7800EB820213885B063FD440F60F7487
:1020A00048F2800513881C4044F4404444F0800406
:1020B00014800A7830F8223023F4E04323F0400300
:1020C0001B041B0C2B4320F822300A7830F82230F6
:1020D00023F4804323F070031B041B0C2B4320F8D4
:1020E000223030BC0020704730F8243000EB8402EE
:1020F0005D040DD540F60F7330F82420134043F4EF
:10210000404343F0800320F824300A7800EB820239
:10211000138823F4804323F0700350E740F60F73D5
:102120001488234043F4004343F0C00313800A782B
:1021300000EB8202B2E700BF4A78F0B5012A8B6952
:102140005DD00C69A34292BF00251D1B23468C7AEB
:102150008D615CBBB0F850200C7892B206323E2BF9
:1021600002EBC40200F5806540F28480C3F34F1493
:10217000DE0604BF04F1FF339CB2734B43EA8423B1
:102180009BB245F812300A7830F8223023F48043AD
:1021900023F070031B041B0C83F4405343F40043EF
:1021A00043F0800320F822300020F0BD002AEAD15D
:1021B000B0F850200C7892B202323E2B02EBC402EF
:1021C00000F5806540F28E80C3F34F16DF0604BF32
:1021D00006F1FF34A6B25C4C44EA8624A4B245F86A
:1021E00012404A78002A40F08B80B0F850300A78CC
:1021F0009BB2063303EBC20345F81340C3E70A69F9
:10220000934292BF00249C1A13468A7A8C61002A5A
:102210003BD00C7800F5806630F8242012F0400F97
:10222000B0F8502092B278D0023202EBC4020C898E
:1022300046F812309BB201335B1006EB440618BF20
:1022400000224C6906D034F8025B26F82250013295
:102250009A42F8D14B78002B66D140F60F730A787A
:1022600030F82240234043F4004343F0C00320F8F9
:10227000223024E0C3F34F04DB0744BF0134A4B28F
:10228000A402A4B245F812407DE79EB28F880136C1
:1022900000F5806E76100EEB47074C6906D034F8D7
:1022A000025B27F8225001329642F8D1B0F8502054
:1022B0000C7892B2023202EBC4024EF812300A7865
:1022C00030F8223023F4E04323F040031B041B0CBE
:1022D00083F0300343F4004343F0800320F82230BE
:1022E0000020F0BDC3F34F04DE0744BF0134A4B2A5
:1022F000A402A4B245F812404A78002A3FF475AF10
:10230000012A7FF440AFB0F850200C7892B202322C
:1023100002EBC40245F8123035E702EBC402023288
:10232000CC8846F8123085E7012BC8D140F60F73F0
:102330000A7830F82240234043F4404343F08003BE
:1023400020F82230BBE700BF0080FFFF0A782AB3E5
:102350004B788BB930F8223023F4804323F070039C
:102360001B041B0C83F4805343F4004343F08003AD
:1023700020F822300020704730F8223023F4E04368
:1023800023F040031B041B0C83F0100343F40043B1
:1023900043F0800320F8223000207047038823F4A4
:1023A000804323F040031B041B0C83F4805383F011
:1023B000100343F4004343F0800303800020704780
:1023C0004B7810B42BB30C7830F8243000EB840237
:1023D0005B060DD540F60F7330F82420134043F40C
:1023E000004343F0C00320F824300A7800EB820257
:1023F0001388002023F4E04323F040031B041B0C4C
:1024000083F0300343F4004343F08003138010BC97
:1024100070470B7830F8234000EB830264040DD53D
:1024200040F60F7230F82340224042F4404242F01E
:10243000800220F823200A7800EB82021388002013
:1024400023F4804323F070031B041B0C83F44053DC
:1024500043F4004343F08003138010BC704700BF77
:1024600011B98023A0F84C3000207047002070473D
:1024700000207047B0F8440080B2704700207047D9
:10248000013300F580605B1000EB420209D030B4EC
:10249000002431F8025B22F824500134A342F8D121
:1024A00030BC7047013300F580605B1000EB4202E6
:1024B00005D052F8040B013B21F8020BF9D170470B
:1024C00029230380004870473C0000200023D0F8F7
:1024D0001822184682F85030704700BF10B5D0F867
:1024E0001842E36C012B01D0002010BDD0F81C3243
:1024F0002246DB6861782078984700230020E36457
:1025000010BD00BF0A2303800048704774000020FC
:1025100038B50546D0F81842D0F81C32224661780A
:102520002078DB689847224628464023012104F0A2
:102530001FFF002038BD00BF70B50B78054613F0B3
:102540006004D0F8186214D0202C10D14B78023BD4
:10255000092B3DD8DFE803F0352E3C3C3C3C3C05E4
:10256000292501238A79F364314600F00FFC00200D
:1025700070BD4B780A2B2FD00B2B0ED0062BF6D12B
:102580004B881B0A222B34D0212B2CD021462246EB
:10259000284600F0E5FB002070BD8B782046B36430
:1025A00070BD8B780020336470BD4B8800201B0AFF
:1025B000736470BD06F14001012200F0D1FB0020E0
:1025C00070BD06F14401012200F0CAFB002070BD7D
:1025D00000F094FB022070BD06F14801012200F0DA
:1025E000BFFB204670BDCA880649092A28BF0922B8
:1025F000CEE7CA88D0F81C32212A28BF21221968C8
:10260000C6E700BF6800002010B50446812104F031
:1026100059FE2046012104F055FED4F8183253B17A
:10262000D4F81C329B689847D4F8180204F0B2FE24
:102630000023C4F81832002010BD00BF70B5044656
:1026400040230322812104F02DFE40230322012197
:10265000204604F027FE542004F098FEC4F8180227
:1026600078B100260546D4F81C3280F850605B68CB
:1026700098472A4620464023012104F079FE30463F
:1026800070BD012070BD00BF38B590F8FC51032D1E
:1026900001D0002038BDD0F8184294F85030002BFB
:1026A000F7D113460A46012184F85010812104F025
:1026B00051FE002038BD00BF19B1C0F81C12002027
:1026C00070470220704700BF88B108B5D0F81432B7
:1026D00013B10023C0F8143209B1C0F8101201235D
:1026E000027080F8FC3104F08FFD002008BD02204C
:1026F000704700BF19B1C0F81412002070470220C3
:10270000704700BF08B504F0BFFD002008BD00BF42
:1027100008B5D0F8143213B11B68984708B10220ED
:1027200008BD08BD08B5D0F814325B689847002092
:1027300008BD00BF38B5044600F50275284600F014
:10274000C9FA012094F80812B4F80E2201F01F0310
:102750008342C4F8F401C4F8F82115D00ED3022B3B
:1027600006D001F08001204604F0BAFD002038BDFB
:102770002946204600F046FA002038BD294620466A
:1027800000F0D4F8002038BD2946204600F01CFA9D
:10279000002038BD10B5044631B91346D0F8F421F5
:1027A000032A0CD0002010BDD0F814329B69002BF6
:1027B000F8D090F8FC21032AF4D19847F2E7D0F83A
:1027C0000C11D0F8102191420CD8D0F814321B69AA
:1027D0001BB190F8FC21032A0FD0204600F0EEFA3E
:1027E000002010BD891A8A4228BF0A46C0F80C1181
:1027F00092B2194600F0DAFAD4E79847EDE700BF45
:1028000070B5044651B91346D0F8F421022A15D008
:1028100094F80032012B0CD0002070BDD0F8143297
:102820005B69002BF8D090F8FC21032AF4D198477B
:10283000F2E7002384F80032002070BDC669026A06
:10284000964223D88369B3FBF2F502FB15358DB9A7
:102850009A420FD8D0F8F82193420BD22A4600F0C2
:102860008DFAC4F8F8512B462A462946204604F032
:102870007FFDCDE7D4F81432DB681BB194F8FC215E
:10288000032A0BD0204600F0A5FAC1E7B21A0D4684
:10289000C261194692B200F071FAE4E72046984707
:1028A000F0E700BF38B500224025044611462B460C
:1028B00004F0F8FC2B460022C4F810512046802179
:1028C00004F0F0FC0122D4F81832256284F8FC21CF
:1028D0002BB1D4F8143221795B6820469847002048
:1028E00038BD00BF01740020704700BF03460422BA
:1028F00090F8FC11002083F8FD1183F8FC2170474B
:10290000034690F8FD21002083F8FC21704700BFAA
:1029100090F8FC21032A01D00020704708B5D0F8B8
:102920001432DB6903B19847002008BD30B54B78FD
:1029300083B00D460446092B0BD8DFE803F0354879
:102940000A580A05650A7B158B8813B9CB88002BBA
:102950007DD08021204604F0C3FC2046002104F0F5
:10296000BFFC002003B030BD8978964D0129297045
:10297000EFD890F8FC31022B00F08780032BE8D1D0
:10298000002900F014814168012909D0C9B2FFF77C
:10299000C9FE297820466160FFF7BAFE0228D8D028
:1029A000204600F00BFADCE7012290F8FC3103210D
:1029B000023B9342CDD8D0F80432C26003B1C1606B
:1029C000022204F10C01204600F0CAF9C9E790F890
:1029D000FC31023B012BBCD84B88012BC1D100221A
:1029E000D0F81432C0F804229B689847D8E74B8887
:1029F000012BB6D1D0F81422C0F80432936898475E
:102A0000204600F0DBF9ACE74A88130A013B062BAD
:102A10009FD801A151F823F0FB2A00081D2B0008C4
:102A20000B2B00085329000853290008E52A000849
:102A3000A52A0008CA88012A8BD190F8FC31022B04
:102A40001CD0032B85D1011D00F08AF989E790F88D
:102A5000FC318D78032B05F07F053FF47AAF80F8C9
:102A6000FE51294604F068FC204600F0A7F9002D2D
:102A700000F09080022384F8FC3172E700230146C5
:102A800041F8083F00F06CF96BE7002988D001217C
:102A90000323416080F8FC31FFF73AFE02287FF4FF
:102AA0007FAF56E7037C002B7FF453AFD0F814328E
:102AB0000DF106001B6B984707234370BDF80630E5
:102AC000002B3FF44EAFEA88002A3FF44AAF93420E
:102AD00028BF134601461A462046ADF8063000F0DE
:102AE0003FF93EE7037C002B7FF433AFD0F814327C
:102AF0000DF106005B6B9847E0E7D0F810320DF15E
:102B000006011B68007C9847D8E7D2B2052A3FF639
:102B100020AFDFE802F0271F170F372F037C002BB1
:102B20003CD1D0F814320DF106009B6A984702237D
:102B30004370C3E7D0F810320DF106011B69007C29
:102B40009847BBE7D0F810320DF10601DB68007C36
:102B50009847B3E7D0F810320DF106019B68007C6E
:102B60009847ABE7D0F810320DF106015B68007CA6
:102B70009847A3E7D0F810320DF106019B69007C5D
:102B800098479BE7D0F810320DF106015B69007C95
:102B9000984793E7012384F8FC31E2E6D0F8143239
:102BA0000DF10600DB6A98470223437086E7022393
:102BB000416080F8FC31FFF7B5FD204600F0FEF8DB
:102BC000CFE600BF0C01002038B590F8FC31044678
:102BD000032B03D10B790D46012B08D9802104F07A
:102BE0007FFB2046002104F07BFB002038BDD0F89D
:102BF00014329B689847EB88002BF6D1204600F0F2
:102C0000DDF8F2E770B50B788A8803F06003202BBB
:102C1000054659D04B780C46012BD6B236D019D385
:102C2000032B15D190F8FC31022B33D0032B42D16A
:102C30004B8823B9730602D0314604F051FBD5F816
:102C4000143221469B6828469847284600F0B6F87B
:102C5000002070BD90F8FC31022B1BD0032B2AD131
:102C600006F07F0400EB0414130631464CBF143405
:102C700004F5827404F050FB003018BF0120214697
:102C800020600222284600F06BF8E1E790F8FC3162
:102C9000022B05D17206DBD0314604F021FBD7E7C9
:102CA000032B08D14B88002BD2D17106CDD03146F1
:102CB00004F024FBC3E7802104F012FB2846002126
:102CC00004F00EFB002070BDD0F814329B689847CA
:102CD000BEE700BF0B7803704B784370CA788B78DF
:102CE00003EB022343804A790B7903EB02238380B1
:102CF000CA798B7903EB0223C380704710B5044671
:102D0000802104F0EDFA2046BDE81040002104F0D7
:102D1000E7BA00BF00B3037830B4F3B10446002330
:102D200014F8015F0133DBB2002DF9D15B000233EF
:102D3000DCB2032513800C704D7004785CB1022363
:102D400000255A1CD2B2CC548D5410F8014F0233D6
:102D5000DBB2002CF5D130BC704702242346E8E7F3
:102D600038B5134602250A468361C361C0F8F451A1
:102D7000002104F0EFFA002038BD00BF08B513466B
:102D80000A46002104F0E6FA002008BD38B51346D3
:102D900003250A46C0F80831C0F80C31C0F8F451D8
:102DA000002104F0E5FA002038BD00BF08B5134645
:102DB0000A46002104F0DCFA002008BD08B5042210
:102DC0000023C0F8F42119461A4604F0C3FA002083
:102DD00008BD00BF08B505220023C0F8F42119463C
:102DE0001A4604F0C5FA002008BD00BF08B500F07F
:102DF0003DFC002008BD00BF30B5B0F908400246D8
:102E0000842C08BF002485B018BF033403AD0B46E3
:102E100040681168128A8DE8300000F0F5FA012848
:102E200014BF0020039805B030BD00BF002300B5DB
:102E300085B002930393EFF30583ABB102AB00932C
:102E4000012203AB00F014FF012813D1029B3BB118
:102E50004FF08052094B1A60BFF34F8FBFF36F8F53
:102E6000039805B05DF804FB03AB012200F08EFE71
:102E70000128F5D04FF00040F3E700BF04ED00E07B
:102E8000002330B585B004460293EFF3058048B1C6
:102E90008223019304AB13E9070084E8070020466E
:102EA00005B030BD1346154602AA00F0EFFD01281B
:102EB00005D00DB90195EDE740230193EAE7029BA8
:102EC000002BB4BF862308230193E3E708B500F085
:102ED000CDFD012803D0BDE8084000F0F3B808BDDF
:102EE0004FF0FF31002200F10803816080E80C0000
:102EF000C3600361704700BF00230361704700BFD8
:102F000090E80C0010B49C6801328C609C684B60A7
:102F10006160996010BC08610260704730B40D6850
:102F20006B1C11D000F1080200E01A4653681C68BF
:102F3000A542FAD204684B60013499608A605160FE
:102F40000861046030BC704702695368F2E700BF53
:102F500002694368816810B4996054688168A0422E
:102F60004B6008BF5160002113680161581E10605A
:102F700010BC70470A4B1B68013308D04FF0500358
:102F800083F31188BFF36F8FBFF34F8FFEE74FF0CE
:102F9000500383F31188BFF36F8FBFF34F8FFEE7AA
:102FA0008000002006480068006880F3088862B648
:102FB00061B6BFF34F8FBFF36F8F00DF00BF00001C
:102FC00008ED00E010B44FF08074064B21F00101D1
:102FD00040F8202C00E9120040F80C3C10BC4038AE
:102FE000704700BF752F00080000000000000000BF
:102FF000074B19680868B0E8F00F80F30988BFF341
:103000006F8F4FF0000080F311884EF00D0E704767
:103010002C0D00204FF0500383F31188BFF36F8F06
:10302000BFF34F8F0A4A13680133012B136000D09E
:103030007047084B1B6813F0FF0FF9D04FF0500397
:1030400083F31188BFF36F8FBFF34F8FFEE700BF8D
:103050008000002004ED00E0084A136843B94FF0F7
:10306000500383F31188BFF36F8FBFF34F8FFEE7D9
:10307000013B13600BB983F3118870478000002077
:10308000EFF30980BFF36F8F0D4B1A6820E9F00F43
:1030900010602DE908404FF0500080F3118800F0D7
:1030A000ADFC4FF0000080F31188BDE808401968BE
:1030B0000868B0E8F00F80F30988BFF36F8F70479E
:1030C0002C0D002008B54FF0500383F31188BFF397
:1030D0006F8FBFF34F8F00F00FFB18B14FF080528E
:1030E000024B1A60002383F3118808BD04ED00E051
:1030F0000721064B064A1B680648A2FB0323064A23
:103100009B09013B03601160704700BF84000020F1
:10311000D34D621014E000E010E000E030B5FF2570
:1031200007221F4B83B019781E4CC9B201911D7044
:103130001B781D48DBB28DF803309DF803309DF8F5
:10314000031003F050030906026023700DD5062218
:1031500000E00A469DF80330511E5B00DBB28DF89B
:1031600003309DF803301B06F3D4019912020C4C76
:103170000E4BC9B202F4E062026021701A6842F498
:1031800070021A601A6842F070421A60FFF7B0FFCE
:103190000022074B1A60FFF705FFFFF7EBFE00BFA9
:1031A00000E400E00D0100201001002020ED00E00F
:1031B00080000020EFF305830F2B0ED91049114A30
:1031C0005B5C12789A4208D94FF0500383F3118860
:1031D000BFF36F8FBFF34F8FFEE70B4B0B4A1B689C
:1031E000126803F4E063934208D94FF0500383F36D
:1031F0001188BFF36F8FBFF34F8FFEE7704700BF9B
:10320000F0E300E00D0100200CED00E010010020D3
:1032100030B4114B1A68824201D21346FAE75C6857
:103220001919884203D141681846214459604468FD
:1032300001198A4209D1094909688A4205D05168B1
:10324000156821444160056000E00260984218BFA3
:10325000186030BC704700BF240D0020140100200E
:103260002DE9F041464F044600F03EFA3B68002B42
:103270005AD0444A15682C4250D1002C4ED004F14B
:10328000080250071CBF22F007020832002A45D06E
:10329000DFF80081D8F80060B2423FD83A480468AD
:1032A00006E0D4F800E0BEF1000F04D020467446DA
:1032B00061688A42F5D89C4230D08B1A2768102B5F
:1032C000076010D9A018410708D04FF0500383F3CE
:1032D0001188BFF36F8FBFF34F8FFEE743606260CB
:1032E000FFF796FF61680023284A761A1068294381
:1032F00086426160236004F1080438BF1660C8F894
:10330000006000F0A7FA63070BD04FF0500383F37F
:103310001188BFF36F8FBFF34F8FFEE700F09AFA6B
:1033200000242046BDE8F08119494D0724D0CA1D6C
:1033300022F0070201F5406311469B1A00204FF06E
:1033400000460B44083B23F00703DFF840E05A1A1D
:10335000CEF80020DFF83CE03B60CEF800200A4FBA
:10336000DFF820E078603960586018603546CEF8A4
:1033700000604A600B607EE74FF44063DEE700BF09
:1033800014010020180D0020240D0020200D002025
:10339000180100201C0D0020D0B1194A50F8043C3F
:1033A0001268134208D14FF0500383F31188BFF322
:1033B0006F8FBFF34F8FFEE750F8081C49B14FF0F5
:1033C000500383F31188BFF36F8FBFF34F8FFEE776
:1033D000704710B5044623EA020340F8043C00F0AD
:1033E00083F9084A54F8043C1168A4F108000B441E
:1033F0001360FFF70DFFBDE8104000F02BBA00BFCF
:10340000180D00201C0D00202DE9F84F4FEA820A0C
:10341000804650460D4699460B9FFFF721FF002836
:1034200000F0CC8006465420FFF71AFF044600281F
:1034300000F0D28006632B78AAF1040A80F83430B9
:103440002B78564426F0070A002B47D06B7880F87B
:1034500035306B78002B41D0AB7880F83630AB78C4
:10346000002B3BD0EB7880F83730EB78002B35D051
:103470002B7980F838302B79002B2FD06B7980F89E
:1034800039306B7953B3AB7980F83A30AB792BB3E1
:10349000EB7980F83B30EB7903B32B7A80F83C3042
:1034A0002B7ADBB16B7A80F83D306B7AB3B1AB7AB3
:1034B00080F83E30AB7A8BB1EB7A80F83F30EB7A14
:1034C00063B12B7B80F840302B7B3BB16B7B80F86A
:1034D00041306B7B13B1AB7B80F842300A9D4FF0DB
:1034E000000B062D28BF0625261DE56265643046C3
:1034F00084F843B0C4F848B0FFF7FEFCC5F10705F7
:1035000004F11800FFF7F8FCC4F84CB0A561246181
:1035100084F850B064624A4641465046FFF752FD77
:10352000206007B13C60FFF775FD424A424F1368C7
:10353000013313603B68002B44D0DFF81C81D8F8BE
:1035400000307BB3E36ADFF814910125DFF810C186
:10355000DFF810E105FA03F203EB8303314609EBD0
:103560008300DCF80060DEF8003032432B44CEF8F4
:103570000030CCF80020FFF7C3FCFFF76DFDD8F852
:103580000030C3B13A68E36AD26A9A4213D24FF06C
:1035900080522A4B1A60BFF34F8FBFF36F8F2846BC
:1035A000BDE8F88F3A68E36AD26ADFF8B0909A42D1
:1035B00098BF3C60C9E72846BDE8F88F4FF0FF3060
:1035C000BDE8F88F3C601368012B0CD0E36ADFF88C
:1035D0008C90DFF88480B8E73046FFF7DDFE4FF0CF
:1035E000FF30BDE8F88FDFF874904D4609F18C0884
:1035F00028461435FFF774FC4545F9D1DFF868809B
:103600000F4D4046FFF76CFC2846FFF769FC0D485C
:10361000FFF766FC0C48FFF763FC0C48FFF760FC03
:103620000B4B0C4AC3F80080E36A1560DFF8288072
:103630008BE700BFC40D00202C0D002004ED00E03E
:10364000F00D0020100E00203C0E0020280E00205F
:10365000300D0020340D0020240E0020380D0020F5
:10366000D80D0020D40D0020DC0D002030B5002442
:10367000174A83B00192009423464FF48072154993
:103680001548FFF7C1FE01280CD0013001D003B06E
:1036900030BD4FF0500383F31188BFF36F8FBFF33A
:1036A0004F8FFEE74FF0500383F31188BFF36F8F06
:1036B000BFF34F8F4FF0FF350849094A094B0D60A2
:1036C00010601C6003B0BDE83040FFF727BD00BFAD
:1036D000040E0020DC7500086D390008080E00207B
:1036E000240E0020500E0020024A1368013313609C
:1036F000704700BFD00D00202DE9F84F4A4B1B68E2
:10370000002B53D1494B1E6801361E60002E5AD043
:10371000DFF838B1DBF800200024964260D3444D36
:10372000444FDFF82C812EE02A68D268D2F80C9042
:10373000D9F8041009F1040A8E426AD35046FFF703
:1037400007FCD9F8281009F1180009B1FFF700FCAF
:103750000122394BD9F82C001B6802FA00FE4EEA10
:10376000030E00EB8000344B514607EB8000C3F89A
:1037700000E0FFF7C5FBD8F80000D9F82C10C26AAA
:10378000914228BF01242A681268002ACCD14FF048
:10379000FF32CBF80020D8F80030DB6A03EB83035C
:1037A00057F82330022B28BF012404E00024234AC9
:1037B000136801331360224B1B68002B18BF0124D0
:1037C0002046BDE8F88F1A4D2B681B6863B14FF097
:1037D000500383F31188BFF36F8FBFF34F8FFEE762
:1037E000144FDFF86C80D6E7164B29681868164A24
:1037F000286019601368013313602B681B685BB184
:103800002A68DFF848B0D268D2685268CBF8002046
:1038100080E7CBF80010BEE74FF0FF32DFF82CB0A6
:10382000CBF8002076E700BFD00D0020500E00201E
:10383000300D0020380D0020D80D0020CC0D0020C8
:10384000540E0020340D00200C0E0020080E002025
:103850002C0D00202DE9F84F394C236843B94FF067
:10386000500383F31188BFF36F8FBFF34F8FFEE7D1
:10387000FFF7D0FB2368013B23602468002C51D163
:10388000304B1B68002B4DD02F4DDFF8D4A02F4EAE
:10389000DFF8D090DFF8D0B020E00127DAF80C3064
:1038A000DC6804F1040804F11800FFF751FB4046FE
:1038B000FFF74EFBE06A326807FA00F300EB800086
:1038C0001343414609EB80003360FFF719FBDBF837
:1038D0000030E26ADB6A9A4228BF2F60DAF80030D3
:1038E000002BDAD13CB11A4B1A68126802BB4FF0B8
:1038F000FF32184B1A60184E34683CB10127FFF7AD
:10390000FBFE00B12F60013CF9D134602B684BB154
:103910004FF08052114B1A60BFF34F8FBFF36F8F80
:10392000012400E00024FFF797FB2046BDE8F88F54
:103930001A68084BD268D26852681A60DBE700BF89
:10394000D00D0020C40D0020540E0020D80D002002
:10395000300D0020080E0020CC0D002004ED00E00A
:10396000100E0020380D00202C0D00202DE9884875
:103970001C4C1D4E1D4DDFF87C80DFF87CA04FF005
:10398000805906E02368376801332360FFF762FF40
:103990006FB92B68002BF5D1D8F80030012BF8D97E
:1039A000CAF80090BFF34F8FBFF36F8FF1E7FFF7B7
:1039B00031FBF368D3F80CB00BF10400FFF7C8FA41
:1039C0000B4B0B4A1B68013B13602B68013B2B60C0
:1039D000FFF742FBDBF83000FFF7DEFC5846FFF74D
:1039E000DBFCD6E7D00D00203C0E0020C80D0020E7
:1039F000C40D0020380D002004ED00E0164B1B68BC
:103A000033BB1649164A0B601368B3FA83F3DBB273
:103A1000C3F11F03134903EB83039B00CA58C81863
:103A200042B94FF0500383F31188BFF36F8FBFF398
:103A30004F8FFEE74268083352680B449A42426057
:103A400008BF5268084B08BF4260D2681A607047CE
:103A50000122024B1A607047D00D0020540E002046
:103A6000D80D0020380D00202C0D0020054B1B68C0
:103A700033B1054B1B68002B0CBF022000207047A0
:103A800001207047240E0020D00D00202DE9F843BE
:103A9000364C1E4680460F461546FFF7BBFA236894
:103AA00093F85030022B0AD04FF001092368DA6CEA
:103AB00022EA0802DA64236883F85090DEB9FFF73F
:103AC000CBFAFFF7A7FA15B12368DB6C2B602368EC
:103AD00093F85030012B40D001252368D96C21EA9E
:103AE0000701D9640022236883F85020FFF7B4FA55
:103AF0002846BDE8F8831E4BD3F8008020680430C8
:103B0000FFF726FA40B923681A4AD96A136809FAF6
:103B100001F923EA09031360731C18D04644236893
:103B2000B0455E601BD8144B186821680431FFF75C
:103B3000F5F9124B1A68964238BF1E604FF080525A
:103B40000F4B1A60BFF34F8FBFF36F8FB7E721683A
:103B50000C480431FFF7D4F9F0E70025C2E70A4B1F
:103B6000186821680431FFF7D9F9E7E72C0D002028
:103B7000500E0020D80D0020300D0020080E00202F
:103B800004ED00E0280E0020340D0020F8B5E8B167
:103B90001D46044616460F46FFF73CFA0DB1E36C8E
:103BA0002B60022294F85050731E84F85020EDB21E
:103BB000032B04D8DFE803F03733023BE764012D21
:103BC0000DD00125FFF748FA2846F8BD4FF0500305
:103BD00083F31188BFF36F8FBFF34F8FFEE7271D6D
:103BE0001F4E3846FFF7B4F9E36AD6F800E01D48E7
:103BF00005FA03F203EB830342EA0E0200EB8300B3
:103C000039463260FFF77CF9A36ABBB14FF050032D
:103C100083F31188BFF36F8FBFF34F8FFEE7E36C21
:103C20000133E364CBE7E36C1F43E764C7E7022D8E
:103C3000C4D10025FFF710FA2846F8BD0A4BE26A06
:103C40001B68DB6A9A42BCD94FF08052074B1A605E
:103C5000BFF34F8FBFF36F8FFFF7FEF92846F8BD14
:103C6000D80D0020380D00202C0D002004ED00E0C0
:103C70002DE9F843089F48B304461D4690468946FF
:103C8000FFF798FAEFF311864FF0500383F3118892
:103C9000BFF36F8FBFF34F8F0DB1E36C2B60022228
:103CA00094F8505008F1FF3384F85020EDB2032B04
:103CB00005D8DFE803F0231F0228C4F84C90012D3B
:103CC0000DD0012086F31188BDE8F8834FF0500332
:103CD00083F31188BFF36F8FBFF34F8FFEE7A36AA3
:103CE000C3B14FF0500383F31188BFF36F8FBFF35D
:103CF0004F8FFEE7E36C0133E364E0E7E36C43EAF4
:103D00000903E364DBE7022DD7D1002086F3118895
:103D1000BDE8F8831A4B1B6823BB04F10408404636
:103D2000FFF716F9DFF86CE0E26ADEF800C015482C
:103D300005FA02F302EB820243EA0C03414600EB70
:103D40008200CEF80030FFF7DBF80F4BE26A1B6809
:103D5000DB6A9A42B5D95FB10120386086F31188D9
:103D6000BDE8F88304F118010848FFF7C9F8ECE74B
:103D70000123074A1846136086F31188BDE8F883CB
:103D8000D00D0020380D00202C0D0020100E00203A
:103D9000540E0020D80D00202DE9F04F02788DB090
:103DA00082F080041F2C2ED98B46B6498BF8002058
:103DB0000A680BF1010301320A600278074600939A
:103DC0001D2A00F2AD83DFE812F08F028302460263
:103DD0003802A1028F01F900AB03E7009E030D0337
:103DE000AB03AB03AB03AB03AB0328037102BC0211
:103DF000AD02CA0278006D00AB03AB03AB03AB03AB
:103E0000AB03AB03250001F0CDFC044620460DB00A
:103E1000BDE8F08F00228BF8012090F80180012589
:103E200008F1FF3843460BF10209A846AB460237BA
:103E3000954E4FF4003A1D460FE043F030033360D7
:103E40003946C6F810A002F00BFF002D01F02984BE
:103E50000BF1010BA3442744013D691C00F0AC8326
:103E60003878336810F03F0418BF073423F0F003AC
:103E700014BFE40808243360010607F10107336822
:103E80004A46DAD543F0800333603946C6F810A0BD
:103E900002F0E6FE002D01F0EC830BF1010BA144D2
:103EA000A044D9E7794A1178022900F08787FF23D7
:103EB0004FF002148BF80130A8E74178734DA976D2
:103EC00000295FD0002284780129AA842C7701F090
:103ED000FB80C2780229EC846A7702EB040001F0CF
:103EE000ED803A790329AA77288502441FD0787992
:103EF00004296A85E877024419D0B8790529AA858A
:103F000085F82000024412D0F8790629EA8585F860
:103F1000210002440BD0387A07292A8685F822002E
:103F2000024404D07B7A6A8685F823301A44687F7D
:103F3000121BAB7F101AC31A0329AA86E8862B87A7
:103F400020D0EA7F0429A3EB02036B871AD095F8EF
:103F500020200529A3EB0203AB8713D095F821207D
:103F60000629A3EB0203EB870CD095F82220072942
:103F7000A3EB0203A5F8403004D095F823209B1A48
:103F8000A5F8423000234C1C240444F0010404F141
:103F900001148BF8013039E73C4A1178012900F00F
:103FA0005886022905D14178907ED176884201F267
:103FB0002B80FF23364C8BF8013027E7334D95F8E3
:103FC0000090B9F1010F00F05C86B9F1020F40F0EA
:103FD0004E8600264278A97E2E4C0BF104039142B6
:103FE0002670EA76039341F2008043880193002B08
:103FF00001F07B8190F8048018F0010F0CBF0A23B8
:104000000B231846069301F031FE18F00203C24656
:1040100041F08A817A1DCDF814900297994617468F
:104020000BAECDF810B057F8042B4FF0000BB5F8DD
:1040300010A00B9208E0D34500F0BA8323780BF16F
:10404000010B002B40F0B4833146404601F090FF55
:104050000228F0D0012841F0DF82019B09F101091B
:104060004B45E0D1069BC8460A2BDDF81490029F11
:10407000DDF810B002D00A2001F0F8FD00262D8AEC
:1040800012E000BF580E002000080140B80E0020CA
:1040900002000600FC0E0020AE4201F0618223788F
:1040A0000136002B41F05C8200210E2001F060FF00
:1040B0000228F1D081465FFA88F2C8F307238BF813
:1040C00001208BF80230009A039B8BF803909A1A18
:1040D00039798B0757BF7C8842F48022013442EA49
:1040E000844202F1011491E6B44D431C09932B78EC
:1040F000012B089300F0E883022B40F0C9830022D3
:104100004178A87EAE4C0BF1030388422270E97619
:10411000079340F27287BB7803370293002B01F0BC
:104120005582924613460692CDF810B03E787A1C1E
:1041300016F0010F03920CBF0A220B22B007059262
:1041400040F1FB81BAF1000F40F0A782F10600F1C7
:104150003F821046984201D001F088FD0027B5F853
:10416000108007E0B84500F0518623780137002B16
:1041700040F04C860021304601F0FAFE0228F1D0D2
:104180000128824640F04386300600F18187059B76
:10419000039F0699227801310691002A41F02C8173
:1041A000029A013A0292C1D1DDF810B00A2B02D076
:1041B0000A2001F05BFDBAF1000F01F0B0814FF071
:1041C00000082D8A0BAE08E0454501F0A780237852
:1041D00008F10108002B41F0A18031460E2001F0CA
:1041E000C7FE0228F0D0012841F0AA8100210B9AD5
:1041F0000890140A62F30701079864F30F21140C66
:1042000064F31741120E62F31F61024604320792F3
:104210003A469DF818300397016009990098521AA0
:1042200007998BF801300C1A9DF8203044EA0244BB
:1042300004F101148BF80230E8E500222025022069
:104240000121604B5D4C22701D615F4C186119614A
:104250008BF80120DAE54278002A40F094820121AF
:1042600020250224554A574B11700A46186820F43D
:1042700070001860186840F4E00018601D6118684C
:1042800020F0F0001860186840F0300018601C61E1
:10429000186820F00F001860186840F003001860DC
:1042A00019618BF801204FF00214AFE5D0F801300E
:1042B000002B00F0AA82454A934240F26D8501220C
:1042C0003E4B5A705A600023414C8BF801309DE5FB
:1042D0004278002A00F04C82012A00F04982FF2334
:1042E0003C4C8BF8013091E54378F12B00F0E385ED
:1042F00000F27282042B00F0EA85F02B40F0E28598
:104300003323354C8BF80230012354E600214078EA
:104310002A4A324C107378881082BB8853828BF8FB
:10432000011073E500207B78244903F00302013279
:10433000C3F380030A764B764FF002148BF801002A
:1043400064E54078B91C002840F056824FF4807034
:10435000234C02F04FFC00238BF8013056E54FF060
:10436000000801248BF801800BF1020990F801A0EC
:10437000831C274619E01E784A4616F03F0508BF01
:10438000092305F107054FEAD5050CBF08256B1C6D
:10439000594630461F4401F00BFA32060BEB050379
:1043A00044BFA944641908F10108D04503F1010B89
:1043B000E1D144EA074404F1011427E5B80E0020D6
:1043C000FC0E002000080140020001007FA812013D
:1043D00002000500020003000300020002000600C4
:1043E0000200220000232021B24A51610B930B9B53
:1043F000B3F5FA7F06DA0B9B01330B930B9BB3F5F6
:10440000FA7FF8DB202001220023AA49AA4C086188
:104410008BF802208BF80130F8E48278D7F803306B
:1044200012F00109407805D00124A249C5074CBF0C
:104430000C614C6112F0020805D002249D498707E7
:104440004CBF0C614C6112F0040C06D0810814BF03
:1044500004244FF4802497490C6112F0200505D004
:104460001024944986064CBF0C614C6152B2002A5C
:104470005CDB53B391496424994228BF1946904BA1
:1044800004FB01F14FEA500E5C684FEA900A4709BD
:10449000C609B9F1000F40F05984B8F1000F40F09F
:1044A0003485002A834881F26B80002D40F0E48639
:1044B0006546002D40F0B584C268C2F340129642B2
:1044C00003D05A68121B9142F3D87A4A7D4CD568C2
:1044D0009368916803F00203906801F004010B43B4
:1044E00005F00105D1682B43D26800F008000343B2
:1044F000C1F3001143EA4113C2F3401243EAC2136D
:104500008BF8013082E4B0F8013003EB4303DB00A9
:10451000013B013BFDD100236B4C8BF8013075E46E
:10452000FF234FF001148BF800306FE42024C10901
:10453000604914BF0C614C619BE7BAF1000F2FD0AA
:104540000A2B02D00A2001F091FB4FF00009B5F8C8
:10455000108008E0C84500F02581237809F10109A1
:10456000002B40F01F810BA90E2001F001FD022855
:10457000F0D00128014640F0168100210B9A0A2351
:10458000100A62F3070160F30F21100C60F317416A
:104590000798120E62F31F6102460432016007920F
:1045A000D7F80120B10607F105070B9240F1BF8053
:1045B0006A614FF0000AECE548EA0B4404F101148B
:1045C00024E4310600F18385F20607907FF5E0AD23
:1045D000D7F8012005980192984207F1050203924D
:1045E000B5F8129001D001F041FB4FF000082F8A7E
:1045F00008E0474500F00484237808F10108002B07
:1046000040F0F8830021304601F0B2FC0228F0D0DF
:104610000128014641F00A804FF000084FF0000BDE
:104620002F8A05E05F452DD023780BF1010B4BBBA2
:104630000BA9304601F09CFC02280146F2D001286B
:1046400020D10B9A6B691340019A9A423FF49FADB7
:10465000C14504D0237808F10108002BDED0DDF835
:1046600010B040F01001C9B2029B039A05E0C606E3
:1046700006D40132013B00F0008510788707F6D49C
:104680000532F7E76A690B9BDDF810B01340019A19
:104690009342E6D1029B039AEFE79A42B5F8108065
:1046A00000F0C7830A2B02D00A2001F0DFFA4FF096
:1046B000000912E00008014003000100C0C62D00FF
:1046C000001000E00200070002000300C84579D096
:1046D000237809F10109002B74D10BA90E2001F0F8
:1046E00047FC0228F2D001460A234FF0000A0129B4
:1046F00040F0B88700210B9A07984FEA122E62F318
:1047000007016EF30F214FEA124E6EF31741120E9E
:1047100062F31F61079A04301160BAF1000F7FF451
:1047200050AF0790F0063FF553AF059812E5059896
:10473000984201D001F09AFA4FF00009B5F81080C4
:1047400005E0C84526D0237809F1010913BB0BA960
:10475000304601F00DFC0228F3D00128014640F05C
:104760004487330600F17D83059B4FF0000A10E576
:10477000BA78B94B12F0010F0CBF4FF400524FF052
:1047800000521A61C7E6012A3FF469AD022A42D0FD
:10479000002286E50146DDF810B03A464FF0000AE7
:1047A000029B6AE701460A23DDF810B0059371E722
:1047B0004B46029FDAB2DDF81490DDF810B0C3F377
:1047C00007237CE40A2301460593DDF810B04FF07F
:1047D000000A029B039A50E7FE2B00F0DD83FF2BBB
:1047E00040F07083002340228BF803308BF80220C6
:1047F0009A4C0223FFF7DFBBC41DE40801342404F4
:1048000044F0010404F10114A3E5FF23944C8BF858
:104810000130FFF7FBBA2026102501249149924B65
:104820000A701968042021F470011960196841F4B4
:10483000401119601E61196821F47021196019680E
:1048400041F4403119601D61196821F00F011960B0
:10485000196841F0030119601C61196821F0F00129
:104860001960196841F0300119601A61196821F462
:1048700070611960196841F4407119601861196814
:1048800021F470411960196841F48041196008E50C
:10489000827803372AB909E0D90605D40137013AED
:1048A00004D03B789807F7D40537F8E70023099A36
:1048B0008BF80130BC1A240444F0020404F1011402
:1048C0008BF80230FFF7A2BA0022684C83780BF114
:1048D00003010193227003370691002B00F04A86F2
:1048E0001146079205920492CDF808B03E787B1CE1
:1048F00016F002080393049B00F0BA80002B37D017
:1049000006F01103012BB5F810904FF0000809D103
:1049100090E0C14500F07F81237808F10108002B69
:1049200040F079810BA90E2002F006FA0228F0D09F
:10493000002301460493012940F0AD8600220B9B21
:10494000069863F3070200F1040E180A60F30F22C1
:10495000180C60F317421B0E63F31F620698049B4A
:1049600002601BB11946330600F19282CDF818E0BF
:1049700016F0100300F0D9807B1DD7F80190F707DF
:104980000393B5F812A016D54FF000082F8A08E05F
:10499000474500F02E81237808F10108002B40F0F4
:1049A0002E810021304602F0C7F90228F0D00128FC
:1049B000014640F025814FF000084FF0000B2F8A90
:1049C00006E05F453ED023780BF1010B002B39D177
:1049D0000BA9304602F0B0F902280146F1D00128B7
:1049E00030D16B690B9A1340994500F0A881C245FC
:1049F00004D0237808F10108002BDED0DDF808B0E0
:104A000040F01001C9B2019B039A05E0C60606D426
:104A10000132013B00F0038210788707F6D405329B
:104A2000F7E7C14500F0E580237808F10108002B85
:104A300040F0E5800BA9304602F07EF90228F0D064
:104A4000014678E70B9B6A69DDF808B01340994589
:104A5000D6D1019B039ADFE7001001400400020059
:104A600002000500B80E002000080140FC0E0020E6
:104A70003BB3B5F8109008E0C14500F0BA80237848
:104A800008F10108002B40F0BA800BA90E2002F0BB
:104A900053F90228F0D00128014640F0FC8500229D
:104AA0000B9B190A63F3070261F30F22190C61F3E0
:104AB000174206991B0E63F31F620B4604330A600C
:104AC0000693D7F8013016F0200807F105070B937D
:104AD00077D06B61002301210493059A237801327A
:104AE0000592002B40F00883019B013B01937FF46A
:104AF000FDAEDDF808B00397012900F09282CBB239
:104B00000893099A039B00999B1A069A541A44EA3F
:104B100003449DF8143004F101148BF801309DF822
:104B200020308BF80230FFF771B916F00107B5F8A5
:104B3000108023D0049A002A40F00581174605E032
:104B4000B84556D023780137002B58D10021304684
:104B500002F0F2F80228F3D00128014640F09B85CC
:104B6000300600F1AA830023039F07930491B4E762
:104B7000B8453ED023780137002B40D10BA93046F1
:104B800002F0DAF80228F3D00128014640F08385CC
:104B9000320600F1A78100220B9B039F180A63F3E2
:104BA000070260F30F22180C60F317421B0E63F329
:104BB0001F6200230698079303460433026006939E
:104BC0008BE7B5F8109005E0C1451CD0237808F1BB
:104BD0000108C3B90BA9304602F0AEF80228F3D0A1
:104BE0000128014610D133061DD4002307900493F9
:104BF00073E7019B0146039ADDF808B00CE7014614
:104C0000DDF808B025E701460023DDF808B004937D
:104C10003A46019B00E7002301460493DDF808B003
:104C2000019B039AF8E60022AB68079063F3070242
:104C3000180A60F30F22180C60F317421B0E63F37F
:104C40001F62002306980493034604330260069310
:104C500043E7D0F802300CA941F8043D002002F0EF
:104C60006BF80023C24C8BF80130FFF7CFB800215E
:104C700003228BF801108BF802108BF80310FFF75A
:104C800027BA0022BB4C43880BF104010193227028
:104C90000291002B00F0AE8190F8048018F002031E
:104CA00040F02F82421D2F4691461D460BAE0390C9
:104CB000CDF810B059F8042B4FF0000BB7F810A046
:104CC0000B9205E0D34532D023780BF1010B73BB77
:104CD0003146404602F030F80228F3D0012826D1B0
:104CE000019B0135AB42E5D1A8463D46DDF810B049
:104CF000039F00262D8A04E0AE4208D023780136B7
:104D00002BB900210E2002F017F80228F4D08146BA
:104D10005FFA88F2C8F307238BF801208BF8023082
:104D2000009A029B8BF803909A1AFFF7D1B981463B
:104D3000039FDDF810B0EAB2C5F30723ECE70023C8
:104D4000039F0793C9E6039F0793C6E6BCF1000FD4
:104D500040F02981B8F1000F40F04F82002A80F224
:104D60006B849E46844B05E0DEF80420121B9142C2
:104D70007FF6ABABDA6802F001029042F4D125B1C4
:104D8000DA68C2F300129742EED1DA68C2F3401239
:104D90009642E9D1FFF799BB784A00211A44B2FB49
:104DA000F3F3022B0CBF0B46754A764D1CBFA2FBDA
:104DB00003239B0869706B60FFF785BA4378917E87
:104DC000D37699427FF673A80E2000F04FFF00F0D3
:104DD00051FD0023040A010C020E8BF803408BF8EE
:104DE00002008BF804108BF805208BF80130664C1C
:104DF000FFF70CB80146DDF810B0029B039A3CE4C3
:104E00000146029B039ADDF810B036E48246514613
:104E1000DDF810B04FF0000A029B039A2DE40392D4
:104E20006AE68268C2F3800292457FF44AABFFF7DC
:104E300043BB16F010097FF435AC9B4608E0C8452B
:104E400000F0D182237809F10109002B40F0CB82D8
:104E50000BA9304601F08CF80228F0D00146059BE2
:104E600045E40021AA68059B100A62F3070160F37C
:104E70000F21100C60F317410798120E62F31F61A7
:104E80000246043201604FF0000A0792FFF781B931
:104E90000022AB68180A63F3070260F30F22180CB4
:104EA00060F3174206981B0E63F31F620346083334
:104EB000426006935CE5354B334CCBF8023004235B
:104EC000FFF779B84FF002140023FFF774B8304BA6
:104ED000304C18689B88CBF80200ABF806300623EC
:104EE000FFF769B80022AB68180A63F3070260F3A2
:104EF0000F22180C60F3174206981B0E63F31F6213
:104F0000034604330260069345E6BCF1000F40F00F
:104F10009281002A184805DB24E05A68121B91424E
:104F20007FF6D3AA8268C2F340029645F5D125B137
:104F3000C268C2F300129742EFD1C268C2F34012B6
:104F40009642EAD1FFF7C1BA002D3FF4BEAAC2686B
:104F5000C2F3001297423FF4B8AA5A68121B91425A
:104F60007FF6B3AA8268C2F340029645F5D1EBE71B
:104F700002000600FC0E002000080140FF50250240
:104F8000ABAAAAAAB80E00200600020000E1F505AF
:104F9000E4750008080002002023C14C8BF80230A1
:104FA0000123FFF708B8B8F1000F40F00381002D8E
:104FB00040F02A82BB4F04E05D682D1BA9427FF6BA
:104FC00084AAFD6805F00105A842F5D1BD68C5F3C6
:104FD0008005AA45F0D1002ABFF677AAFD68C5F37F
:104FE0004015AE42E8D1FFF770BAB14633463246BB
:104FF000FFF765B899461A468EE6B91C1346089223
:1050000003910A46FFF709B9082000F02FFED7F8F0
:10501000020000F0DDFC0023A34C8BF80130FEF70A
:10502000F5BE049B002B00F0648100272D8A0BAE97
:1050300007E0BD4200F06F8123780137002B40F07C
:105040006A8131460E2001F077FE0228F1D0012856
:1050500040F0618100220B9B190A63F3070261F3A0
:105060000F22190C61F3174206991B0E63F31F629E
:105070000B4604330A60069343E50129039200F0CE
:105080007582CAB208929DF81830039AFFF7C5B826
:105090000021AA68059B100A62F3070160F30F2143
:1050A000100C60F317410798120E62F31F6102465D
:1050B0000432039F01600792FFF76BB86B7FAA86EB
:1050C000D21AEA86FEF75EBFAA86FEF75BBF002112
:1050D0001046AA6808304FEA122E62F307016EF3F9
:1050E0000F214FEA124E6EF31741120E62F31F6149
:1050F000079A5160FFF768BADDF808B03A46019B9D
:105100008AE418F0010F14D092462E8A08E0B245C6
:1051100000F01D8223780AF1010A002B40F017826B
:105120000021404601F008FE0228F0D0012840F09E
:105130000E82019B0BAE013B039300239A46CDF8F0
:1051400014900497039B9A4500F09F820027B5F8BE
:10515000109004E0B94526D0237801371BBB3146B7
:10516000404601F0E9FD0228F4D001281BD10022BD
:105170000B9B0AF1010A190A63F3070261F30F227C
:10518000190C61F317421B0E63F31F62029B43F875
:10519000042B0293019B5345D4D1DAB2DDF814906D
:1051A000049F1B0AB8E5049F81465FFA8AF2CAF39E
:1051B0000723B1E5002D40F08B813A4F04E05D6894
:1051C0002D1BA9427FF681A9FD6805F00105A842C3
:1051D000F5D1BD68C5F34005AE45F0D1BD68C5F356
:1051E0008005AA45EBD1002ABFF66FA9FD68C5F37B
:1051F0004015AE42E3D1FFF768B9002D40F046817B
:10520000284F04E05D682D1BA9427FF65EA9FD686A
:1052100005F00105A842F5D1BD68C5F34005AE45CE
:10522000F0D1002ABFF651A9FD68C5F34015AE4282
:10523000E8D1FFF74AB9002D40F0088105F180451B
:1052400005F5843504E05868001B81427FF63DA9CE
:10525000A868C0F340008645F5D1A868C0F3800077
:105260008245F0D1002ABFF630A9E868C0F34010AB
:105270008642E8D1FFF729B9654655B9C268C2F33D
:105280000012BA4212D05A68121B9142F5D8FFF7A9
:105290001CB98268C2F380025245F4D1EEE700BF28
:1052A000030002000008014002000600C268C2F3C9
:1052B00040129642E7D1FFF708B90022AB68039F7E
:1052C000180A63F3070260F30F22180C60F3174209
:1052D0001B0E63F31F6200230698079303460433F3
:1052E000026006930491FFF7F8BB99461A46FEF751
:1052F000E6BE079B002B3FF404AC049E2D8A04E01D
:10530000B54208D0237801362BB900210E2001F0D8
:1053100013FD0228F4D00890FFF7F3BB9DF8183076
:1053200003973A46FEF779BF2B8A02932B46254610
:1053300034461E4608E0029B9C4200F00D812A780C
:105340000134002A40F008810021404600F010FEA0
:105350000228F0D001282C464FF00003354640F0DB
:105360004F810293019B0BAE013B05930497029B77
:10537000059A934200F030810027B5F8108004E0D0
:10538000474529D02378013733BB3146504600F0DA
:10539000EFFD0228F4D0012840F036810022029966
:1053A0000B9B01310F4663F307020291190A61F367
:1053B0000F22190C61F317421B0E63F31F62039B4C
:1053C00043F8042B0393019BBB42D0D1DAB2049F74
:1053D00081461B0AFEF773BE029B049FDAB2C3F339
:1053E0000723FEF76CBE5B4601460593DDF810B05F
:1053F000029B039AFFF741B90593DDF810B03A46D6
:105400000121029BFFF739B99E46AC4B05E0DEF85F
:1054100004502D1BA9427FF658A8DD6805F0010550
:10542000A842F4D19D68C5F38005AA45EFD1DD6897
:10543000C5F30015AF42EAD1002ABFF646A8DD68E1
:10544000C5F34015AE42E2D1FFF73FB89B4D04E0F3
:105450005868001B81427FF638A8A868C0F3400056
:105460008645F5D1A868C0F380008245F0D1E86890
:10547000C0F300108742EBD1002ABFF626A8E868E7
:10548000C0F340108642E3D1FFF71FB89C468B4B18
:1054900005E0DCF804502D1BA9427FF616A8DD6854
:1054A00005F00105A842F4D19D68C5F34005AE455D
:1054B000EFD1DD68C5F30015AF42EAD1002ABFF68F
:1054C00004A8DD68C5F34015AE42E2D1FEF7FDBF8A
:1054D0009C467A4B05E0DCF804502D1BA9427EF671
:1054E000F4AFDD6805F00105A842F4D19D68C5F36D
:1054F0004005AE45EFD19D68C5F38005AA45EAD1C8
:10550000DD68C5F30015AF42E5D1002ABEF6DDAF78
:10551000DD68C5F34015AE42DDD1FEF7D6BF564675
:105520002D8A07E0B5423FF4F9AE23780136002B0F
:105530007FF4F4AE00210E2000F01AFD0228F1D015
:105540009DF81830089003973A46FEF766BE002390
:1055500081461A46FFF7E0BB00231A46FEF7AFBDAF
:105560005FFA88F2C8F30723FEF7A9BD1746059B2B
:10557000FEF71CBE019B039705930893FFF7C1BA82
:10558000BCF1000F1CD1002D3EF49FAFC268C2F3E6
:10559000001297423EF499AF5A68121B9142F2D81A
:1055A000FEF793BF002D3EF490AFC268C2F3001225
:1055B00097423EF48AAF5A68121B8A42BEF485AF06
:1055C0008268C2F380025245F5D1EBE7029B039754
:1055D00008933A46FEF721BE069B0A2B0DD00A20FF
:1055E00000F044FB4FF00E0AC6E6DDF810B03A4674
:1055F0004FF0000A029BFFF740B84FF00E0ABBE6DF
:1056000081461A46FEF75BBD029B049FDAB28146D3
:10561000C3F30723FEF753BD4B46029FDAB2DDF812
:1056200010B08146C3F30723FEF749BD029B039ADE
:10563000DDF810B0FFF721B8204E04E05A68121BC5
:1056400091427EF642AFF26802F001029042F5D13B
:10565000002D3EF43AAFF268C2F300129742EDD14A
:10566000FEF733BF0593DDF810B0029B039AFFF7F6
:1056700004B8336823F0F0033360336843F0300339
:105680003360C6F810A0FEF708BC18F0010F18BF71
:105690004FF00E085AE5019B039ADDF808B0FFF7BA
:1056A000BBB9336823F0F0033360336843F0300351
:1056B0003360C6F810A0FEF7CBBB00BF0008014066
:1056C000F8B503787F2B03D0BDE8F840FEF764BB44
:1056D0000E46044606F8023B457802344D704FF002
:1056E000021755B131462046FEF756FB013D83B205
:1056F000074404EB10441E44F4D13846F8BD00BF03
:1057000000212DE9F0414FF400344FF40058224AB3
:10571000224B117051704FF0220C1868202720F096
:10572000F00011734FF0640E18601868516140F07A
:10573000800018601C6101240225194846685176D2
:1057400026F4700646604668917646F44016466038
:10575000C0F810801968C2F804C021F47001196003
:105760001968C2F810E041F4E00119601F6119687E
:10577000147621F0F00119601A6842F030021A60C4
:105780001D611A6822F00F021A601A6842F00302C3
:105790001A601C61BDE8F081B80E002000080140CD
:1057A0000010014003784FF001100B70704700BFEC
:1057B0002DE9F04F10F03F068E46904608BF402678
:1057C000022241064FF00101284BDFF8A4904CBFA4
:1057D0001A615A610A46254C00F0800C0820002707
:1057E000D9F804301EF8015B03F1FF3A002D14BF15
:1057F00004234FF4802323616261BAF1000F2DD09E
:105800005346013BFDD15346D4F808B02161CBF398
:10581000C00B013BFDD14FEACB13013843EA5707D8
:105820004FEA550506F1FF360AD0002EDED127FAE1
:1058300000F0BCF1000F16D088F80000BDE8F08F32
:10584000BCF1000F03D1002EC8D1BDE8F08F88F85D
:10585000007008F10108002EC0D1F6E7A3682161AD
:10586000C3F3C00BD7E7BDE8F08F00BF00080140CD
:10587000B80E0020F0B4012102245348534B426873
:105880001C61013A596100F08B801346013BFDD148
:10589000012413464D490C61013BFDD10225012431
:1058A00013464A494D614C61013BFDD10124134629
:1058B00046490C61013BFDD10124134643494C612B
:1058C000013BFDD10124134640490C61013BFDD150
:1058D000C17E71B1012425463C484561002A5BD058
:1058E0001346013BFDD113460461013BFDD1013953
:1058F000F3D101261F2137460025344C6761002A69
:105900003FD01346013BFDD11346A0682661C0F38A
:10591000C000013BFDD145EAC07001394FEA500596
:10592000ECD102240121294B1C615961002A3ED08F
:105930001346013BFDD101241346244988680C61BC
:10594000C0F3C000013BFDD10121204B45EAC070EE
:1059500059611346013BFDD1012413461B490C61DB
:10596000013BFDD102250124134618494D614C61CC
:10597000013BFDD10121154B1961013AFDD1F0BC6C
:105980007047A0680139C0F3C00045EAC0702661C5
:105990004FEA5005B2D1C4E7013904619DD1A8E7AF
:1059A00019615C61596119615961196190E79868E1
:1059B0001961C0F3C000596145EAC07019615C61AA
:1059C0005961F0BC19617047B80E00200008014011
:1059D000F0B502210124A34EA34B72681961013A6C
:1059E0005C6100F001811346013BFDD101241346A7
:1059F0009D490C61013BFDD10225012413469A49C2
:105A00004D614C61013BFDD10124134696490C6167
:105A1000013BFDD10124134693494C61013BFDD16B
:105A20000124134690490C61013BFDD196F81BE01F
:105A30007146BEF1000F00F0F98001252F468A4C17
:105A40006761002A00F0B0801346013BFDD1134688
:105A50002561013BFDD10139F2D14FF480240121B0
:105A6000814B1C615961002A00F0CF801346013B35
:105A7000FDD1012413467C490C61013BFDD1012479
:105A8000134679494C61013BFDD101241346764907
:105A90000C61013BFDD10124134673494C61013B6C
:105AA000FDD10124134670490C61013BFDD1012554
:105AB0001F212F466C4C002814BF04234FF4802371
:105AC00023616761002A69D01346013BFDD113466B
:105AD0002561013BFDD101394FEA5000EBD1B37E86
:105AE000A3EB0E0EBEF1010F63D0002814BF0420FB
:105AF0004FF4802001215C4B18615961002A00F0AD
:105B00009F801346013BFDD1012013465649086191
:105B1000013BFDD1BEF1020E00F09E800120044643
:105B200051494C61002A5AD01346013BFDD113461E
:105B30000861013BFDD1BEF1010EF2D1022001212D
:105B4000494B18615961002A00F082801346013BDD
:105B5000FDD10121444B1961013AFDD10121736846
:105B6000414A013B516158D01A46013AFDD101200A
:105B70001A463D490861013AFDD1022401201A4626
:105B800039494C614861013AFDD10121364A116120
:105B9000013BFDD10422344B1A61F0BD013925616E
:105BA0004FEA500087D19AE7013925617FF448AF69
:105BB00053E7002814BF04214FF4802102202A4B10
:105BC00018611961C3F814E0002A36D01346013B6E
:105BD000FDD10121244B1961013AFDD1BEE7BEF18F
:105BE000010E08619DD1A9E796F81BE01C6159617F
:105BF0005C6171461C615C611C61BEF1000F7FF449
:105C00001CAF4FF4802119615C610121164B1961B1
:105C1000596119615961196149E7022311615361A1
:105C2000516111610422104B1A61F0BD4FF48024C0
:105C300001210D4B1C61596118E7C3F810E08DE795
:105C4000BEF1020E19617FF469AF02221A61596137
:105C50000122054B1A6181E702200121024B1861E4
:105C6000596173E7B80E002000080140F0B5A44C5C
:105C7000022563780121002B40F0ED806268A14B82
:105C8000013A1D61596100F053811346013BFDD17A
:105C9000012513469B490D61013BFDD101251346AA
:105CA00098494D61013BFDD10125134695490D6190
:105CB000013BFDD102260125134692494E614D61FB
:105CC000013BFDD1012513468E490D61013BFDD1FC
:105CD000012513468B494D61013BFDD1012513463A
:105CE00088490D61013BFDD10423E67E854D04EB1F
:105CF0004601898C2B6179B10127BE46C5F814E0B5
:105D0000002A00F08C801346013BFDD113462F6121
:105D1000013BFDD10139F1D1A319197F013917D008
:105D20000127BE46774D002814BF04234FF480237B
:105D30002B61C5F814E0002A6BD01346013BFDD15E
:105D400013462F61013BFDD101394FEA5000EAD1E2
:105D500004EB4606B18E002966D0002814BF042546
:105D60004FF480250120674B1D615861002A00F027
:105D7000E8801346013BFDD10125134661480561CA
:105D8000013BFDD104205F4B0139186100F0E68032
:105D900001252E465B484661002A00F0AC80134680
:105DA000013BFDD113460561013BFDD10139F2D123
:105DB00002200121534B18615961002A00F0CA806A
:105DC0001346013BFDD101214E4B1961013AFDD132
:105DD000012163684B4A013B516100F0A3801A46E0
:105DE000013AFDD101201A4646490861013AFDD128
:105DF000022401201A4643494C614861013AFDD111
:105E00000121404A1161013BFDD104223D4B1A6141
:105E1000F0BD01392F614FEA500084D198E7013974
:105E20002F617FF46BAF77E7002814BF04204FF495
:105E3000802002250121334B1D6118615961002A20
:105E400000F091801346013BFDD101212D4B1961DA
:105E5000013AFDD1BCE70427E67E2A4B04EB46025B
:105E6000928C1D6159611961596119615D615961B6
:105E70001961596119611F611AB1013A59611961BA
:105E8000FBD1A3191B7F013B0DD001211D4A002826
:105E90000CBF4FF480250425013B15614FEA5000EB
:105EA00051611161F3D104EB4604A38E002B2BD07A
:105EB000002814BF04244FF4802401210420114A37
:105EC000013B146151611161106103D0013B5161CB
:105ED0001161FBD1012202210A4B19615A611A6139
:105EE000012202200421074B5A611A6158615A614C
:105EF0001A611961F0BD013905617FF44CAF57E7B4
:105F0000B80E00200008014000284FF0010214BF25
:105F100004214FF480210220144B186119615A6149
:105F20001A61DDE7022311615361516111616CE770
:105F30001961596119615D6159611961596119618D
:105F4000D2E60425013918611D617FF421AF0222D8
:105F50001A6158610122054B1A6139E702200121BB
:105F6000186159612CE7196132E700BF0008014050
:105F70002DE9F047AB4C6378002B40F0F18002260E
:105F800001256268A84B013A1E615D6100F0BD8287
:105F90001346013BFDD101261346A34D2E61013B63
:105FA000FDD10227012613469F4D6F616E61013BB3
:105FB000FDD1012613469C4D2E61013BFDD10126EA
:105FC0001346994D6E61013BFDD101261346964D56
:105FD0002E61013BFDD1E57E2E4695B14FF0010EBD
:105FE000F446914FC7F814C0002A00F0A980134668
:105FF000013BFDD11346C7F810E0013BFDD1013E46
:10600000F0D1430814BF04264FF480260127864BA5
:106010001E615F61002A00F013811346013BFDD130
:106020004FF0010E1346804FBE68C7F810E0C6F36C
:10603000C006013BFDD183084FEA460640F086804A
:106040004FF4802E0127784BC3F810E05F611346B0
:10605000013BFDD14FF0010C1346DFF8CCE1DEF837
:106060000870CEF810C0C7F3C007013BFDD1C308CC
:1060700046EA070640F0DC804FF4802E01276A4B89
:10608000C3F810E05F611346013BFDD14FF0010CF6
:106090001346DFF894E1DEF80870CEF810C0C7F3BD
:1060A000C007013BFDD146EA8706012E00F0EE80D5
:1060B0000227012513465C490F614D61013BFDD16B
:1060C0000121594B1961013AFDD101216268564BFA
:1060D000013A596100F013821346013BFDD10125BD
:1060E000134651490D61013BFDD10227012513469D
:1060F0004D494F614D61013BFDD1012513464A4990
:106100000D61013BFDD10421474B1961030602D506
:10611000464B5B68A3600120217B434C11F1FF31AA
:106120000BD36061D2B11346013BFDD11346206110
:10613000013BFDD111F1FF31F3D2F0B2BDE8F087A0
:10614000013EC7F810E07FF44DAF5AE74FF0040E60
:106150000127354BC3F810E05F6178E72061DDE788
:1061600001250223E77E304A1361556115615361B1
:1061700055613B461561556115611FB1013B556184
:106180001561FBD143084FF0010514BF4FF0040E19
:106190004FF4802E830814BF04264FF48026C308D2
:1061A00014BF04224FF480221F4BC3F810E05D613E
:1061B000D3F808E01D611E615D619E681D611A6172
:1061C0005D619A68CEF3C00EC2F3C0029200C6F3BE
:1061D000C00642EA4E021643AE421D6100F0CE8078
:1061E00002221A615D611D610122022504210E4B0C
:1061F0005A611A615D615A611A611961030602D51B
:106200000A4B5B68A360227B531E002A95D00121B4
:10621000054A013B5F1C51611161FAD1F0B2BDE842
:10622000F08700BFB80E002000080140001000E019
:106230004FF0040E0127B84BC3F810E05F6122E76E
:10624000860814BF04264FF480265FEAD00E14BFE0
:106250004FF0040E4FF4802ED3F808C01F611E616A
:106260005F619E681F61C3F810E05F61D3F808E0CA
:10627000CCF3C00CC6F3C00646EA4C06CEF3C00E03
:1062800046EA8E06012E1F6140F04881860740F1E4
:10629000A8804FF001084FF01F0CC1464FF0000AD4
:1062A000DFF874E2CEF81490002A59D01346013B6F
:1062B000FDD11346DEF80860CEF81080C6F3C006A4
:1062C000013BFDD14AEAC676BCF1010C4FEA560A01
:1062D000E8D1A37E5D1B012D00F03A8101278E4B92
:1062E0005F61002A00F064811346013BFDD14FF04D
:1062F000010E1346884FBE68C7F810E0C6F3C0060B
:10630000013BFDD1023D00F075814FF0010EF446D6
:10631000814FC7F814C0002A00F064811346013B86
:10632000FDD11346C7F810E0013BFDD1013DF0D18E
:1063300002270125784B1F615D61002A00F0428130
:106340001346013BFDD10125734B1D61013AFDD17F
:106350004AEAC676002900F09D800E600126B4E668
:10636000DEF80860BCF1010CC6F3C0064AEAC67646
:10637000CEF810804FEA560A94D1AAE7820740F17E
:1063800092809E461F254FF0000CB0463346CEF853
:106390001430DEF80820013DC2F3C0024CEAC2729C
:1063A000CEF810304FEA520CF1D1A37EDB1B012B4B
:1063B00000F0E080CEF81480DEF80870023BCEF8E2
:1063C0001080C7F3C00705D00125534A013B556132
:1063D0001561FBD1012202254F4B1D615A611A61E3
:1063E000D3E04FF0010E1F27F44609684A4E0029FA
:1063F00014BF04234FF480233361C6F814C0002A6D
:106400004AD01346013BFDD11346C6F810E0013BCC
:10641000FDD1013F4FEA5101E9D1A67E751B012D47
:1064200000F08180002914BF04264FF4802601214A
:10643000394B1E615961002A00F0C8801346013BA8
:10644000FDD10126134634490E61013BFDD1023DC9
:1064500000F0D680012637462F494F61002A00F010
:10646000C4801346013BFDD113460E61013BFDD1B3
:10647000013DF2D102250121274B1D615961002AFE
:1064800000F0AB801346013BFDD10121224B196185
:10649000013AFDD1012618E6013FC6F810E04FEAA7
:1064A0005101A4D1B9E71F25B6460A68002A0CBFDE
:1064B0004FF480210421013D19614FEA5202C3F8D3
:1064C00014E0C3F810E0F1D1A17ECF1B012F63D0FF
:1064D000002A14BF04234FF4802301210E4A1361C4
:1064E000BB1E5161116103D0013B51611161FBD1B0
:1064F00001220221084B19615A611A6174E60225D2
:1065000019615D6159611961FDE51D615E615D6142
:106510001D615D611D615EE50008014002221A6196
:106520005F611F61D1E5002914BF04214FF4802170
:106530000226394B1E6119615D61002A57D013464E
:10654000013BFDD10121344B1961013AFDD1A1E795
:106550000226314B1E615D61002A57D01346013B74
:10656000FDD101252C4B9E681D61C6F3C006013A82
:10657000FDD1EDE60222CEF81020CEF81430DEF880
:106580000870CEF81030C7F3C0074CEAC77700296F
:106590003FF42AAE0F6027E6002A14BF04214FF40F
:1065A000802102251C4A1D611161576117611BE69C
:1065B0009E68023D1F61C6F3C0067FF4A6AE0222AC
:1065C0001A615F610122144B1A61C1E6023D196133
:1065D0007FF440AF02221A61596101230E4A1E4620
:1065E000136172E5C7F810E0A0E60E6140E71D6197
:1065F0002E466AE502270125074B1F615D619FE674
:1066000002250121044B1D6159613BE79E681D6114
:10661000C6F3C0069CE600BF000801402DE9F04724
:1066200002260125A74CA84A63688A46013B1661E9
:10663000556100F0B1821A46013AFDD101261A4691
:10664000A14D2E61013AFDD102259F4A10F00106AD
:1066500014BF1561556101259B4A5561002B00F05F
:10666000B4821A46013AFDD101271A46964D2F6190
:10667000013AFDD1C0F340050227934A002D00F0F6
:10668000178117610127904A5761002B00F017818D
:106690001A46013AFDD14FF0010E1A468A4FC7F84B
:1066A00010E0013AFDD1C0F3800215440227002A10
:1066B00000F0F480844A17610127834A5761002B58
:1066C00000F0F4801A46013AFDD14FF0010E1A464F
:1066D0007D4FC7F810E0013AFDD1C0F3C00E35443C
:1066E000794A0226BEF1000F00F0CF801661012624
:1066F000754A5661002B00F0CF801A46013AFDD151
:1067000001271A46704E3761013AFDD1754415F0E4
:10671000010F4FF002056C4A14BF15615561012548
:10672000694A5561002B00F052821A46013AFDD1A8
:1067300001261A46644D2E61013AFDD10227012639
:106740001A46614D6F616E61013AFDD101261A460C
:106750005D4D2E61013AFDD1022701261A465A4DA0
:106760002F616E61013AFDD10125574A1561013B48
:10677000FDD14FF40032544F257E3B6823F0F003E7
:106780003B603B6843F080033B603A61002D00F0C2
:1067900027824FF0010E2E4671466268013A7961F8
:1067A000002A6DD01346013BFDD11346C7F810E017
:1067B000013BFDD1013EF2D10127434B5F61002A2D
:1067C00000F0F0811346013BFDD14FF0010E13465E
:1067D0003D4EB768C6F810E0C7F3400E013BFDD14F
:1067E00001271346384E7761013BFDD14FF0010C74
:1067F0001346354FBE68C7F810C0C6F34006013BCC
:10680000FDD10127304B4EEA460E5F611346013B36
:10681000FDD14FF0010C13462B4FBE68C7F810C0D6
:10682000C6F34006013BFDD14EEA8606012E00F07C
:10683000AD80022E4AD0042E48D0012004462249C1
:1068400021354C61002A00F098801346013BFDD1B0
:1068500013460861013BFDD1013DF2D14FF40030F8
:106860000221194BF6B21A6822F0F0021A601A6877
:1068700042F030021A60186119613046BDE8F087B5
:10688000013EC7F810E08AD196E7566101260E4A0C
:106890005661002B7FF431AF166137E70A4A576122
:1068A0000127094A5761002B7FF40CAF176114E7E9
:1068B00057610127044A5761002B7FF4E9AE176145
:1068C000F1E600BFB80E002000080140637EABB1C6
:1068D000810713D54FF0010E2121F446AF4FC7F8C1
:1068E00014C0002A00F044811346013BFDD1134639
:1068F000C7F810E0013BFDD10139F0D17DB101278E
:10690000BE46A649C1F814E0002A3BD01346013B1D
:10691000FDD113460F61013BFDD1013DF2D14FF492
:1069200000359E4B617E1A6822F0F0021A601A68E8
:1069300042F030021A601D61C1B1820716D40125F0
:106940004FF0020E2F46184621226168C3F814E06A
:1069500001394761002900F006810B46013BFDD15A
:106960000B460561013BFDD1013AF2D102228B4B6E
:10697000F6B21A613046BDE8F087013D08617FF448
:1069800060AF6BE7013D0F61BCD1C8E787077AD4E0
:106990007DB1B646814FC7F814E0002A00F0F380BD
:1069A0001346013BFDD113463E61013BFDD1013D44
:1069B000F1D14FF400374FF0010C784A6368156845
:1069C000E04625F0F005156015684FF0020945F026
:1069D000300515601761202500271646DAF80020DB
:1069E000591E12F0010E14BFC6F81090C6F814908C
:1069F000C6F81480002900F0A0800B46013BFDD1B1
:106A00000B46C6F810C0013BFDD1013D77444FEA6B
:106A10005202E6D102220126604BFD074CBF1A61EB
:106A20005A615E4B5E61002900F0E2800B46013B3B
:106A3000FDD10122594B1A610139FDD10126000611
:106A400002D5574B5B68A360227BB2B10125534B43
:106A50004FF0020E2F4618466168C3F814E0013962
:106A60004761002900F08A800B46013BFDD10B46AF
:106A70000561013BFDD1013AF2D10222474B30467C
:106A80001A61BDE8F0874FF0000CB146E0464FF0C8
:106A9000200E424FC7F81490002A57D01346013BEE
:106AA000FDD11346BD683E61C5F34005013BFDD1F4
:106AB000EB07BEF1010EAC4443EA5808EAD10126C7
:106AC000364D6E61002A00F08E801346013BFDD1E9
:106AD0000126324DAB682E61C3F34003013AFDD16C
:106AE00083EA0C0313F0010F14BF08260126BAF144
:106AF000000F01D0CAF80080227E8AB10127BE466D
:106B00006168264D0139C5F814E0002940D00B46D4
:106B1000013BFDD10B462F61013BFDD1013AF2D182
:106B20004FF400311D4B1A6822F0F0021A601A6807
:106B300042F030021A60196181E7013DC6F810C0C9
:106B400077444FEA52027FF44CAF63E7BD68BEF171
:106B5000010EC5F340054FEAC5733E61AC4443EAFC
:106B6000580897D1ABE7013A05617FF4F2AEFDE634
:106B70000139C7F810E07FF4B2AEBFE6013A056113
:106B80007FF46EAF79E7013D3E617FF404AF10E71B
:106B9000013A2F61B7D1C3E7156155E500080140FF
:106BA000001000E0D3F808E01F615F61D3F808C06F
:106BB0001F615F619E68CEF3400E0CF0020C4CEA40
:106BC0000E0EC6F340061F612EE6156152E5022344
:106BD0001561536155611561136155611561C8E512
:106BE0006268013AE8E5AB682E61C3F3400377E7DA
:106BF0001E6124E770B3F0B5002601273246BC467B
:106C00004FF0020E144B441E5D681448013DB6B1AE
:106C1000013ED3074CBFC0F810E0C0F814E0C0F844
:106C200014C085B12B46013BFDD12B460761013BCA
:106C3000FDD1013C631C4FEA5202E8D1F0BD0A7855
:106C400007260131E5E7013C631C07614FEA520268
:106C5000DDD1F3E7704700BFB80E00200008014007
:106C60002DE9F04110F03F0408BF4024000633D561
:106C70004FF0010E94467246DFF8B8802C4E08257E
:106C80000027D8F8040001387261F8B10346013BCF
:106C9000FDD10346B168C6F810E0C1F34001013BE5
:106CA000FDD1CB01013D43EA570704F1FF3407D082
:106CB000002CE9D127FA05F58CF80050BDE8F081E9
:106CC0000CF8017B002CDAD1BDE8F081B168C6F880
:106CD00010E0C1F34001E4E7884601214FF0020EC5
:106CE0000F46144B12485D68013D18F8012BA4F1C2
:106CF0000806D3074CBFC0F810E0C0F814E04761A5
:106D00009DB12B46013BFDD12B460161013BFDD1DD
:106D1000013CB4424FEA520203D0002CE9D1BDE855
:106D2000F081002CE1D1BDE8F0810161F0E700BF06
:106D300000080140B80E0020FFF770BC00230121BD
:106D4000F0B40A4A0A4C0B4813800B4A0B4F0C4E06
:106D50000C4D238003800C4C0C4811703B80338019
:106D60002B8023800380F0BC704700BF020F0020FF
:106D7000000F00200A0F0020060F0020080F00203F
:106D80000C0F0020101F0020121F0020040F0020F5
:106D90002DE9F04F4FF07F0B42F20F76DFF828A17C
:106DA000DFF82881404F414DDFF8249189B04FF042
:106DB000FF3200216846FCF763F8BAF800303C4A1D
:106DC00012889A42F3D0B8F80040A301EA5C01347B
:106DD0007E2A16D1202C08BF00243A8805F803B07B
:106DE0009442F2D14FF0FF32002105A8FCF748F899
:106DF000069B1B06E9D5049BB34205D8049B0133CF
:106E00000493049BB342F9D92A4BB9F80010B8F89F
:106E1000000003EB811105EB8010FEF751FCB8F880
:106E2000003001339BB2202B36D0B9F80020A8F8EF
:106E30000030013292B2202A08BF0022A9F80020B7
:106E40001D4ABAF8003012881C49013301321A4831
:106E500009789BB292B2AAF8003002800029AED025
:106E6000174909888A42AAD0164B1888431C9BB23E
:106E7000202B14D0134A13800E4A4B1C02EB8010B7
:106E80000F4A402113804FF000020C4B1A7000F0A3
:106E9000DBFABAF8003092E74FF00003C5E74FF095
:106EA0000002084B1A80E7E7000F0020100F0020B7
:106EB000020F002010170020121F0020060F0020D4
:106EC000040F0020101F0020080F00200A0F0020D0
:106ED0000C0F002030B501224FF48033002502242E
:106EE0004FF4E01195B00AA80A920E920B931293F8
:106EF0000C9511941391FAF7C1F800B1FEE703461F
:106F00004FF480620F25214605A807930993069444
:106F100005950892FAF79EFA034600B1FEE71022A3
:106F200001A804930192FAF7A5FB044600B1FEE71D
:106F3000FAF76AFB084BA3FB00308009F9F75CF90C
:106F40000420F9F771F9224629464FF0FF30F9F78E
:106F500011F915B030BD00BFD34D621000B589B036
:106F6000FFF7B8FF1F4B002298697F2140F02000F7
:106F700098619C691C4804F020040094009C9C6962
:106F80001A4D44F004049C619C6904F004040194CB
:106F9000019C9C6944F010049C619B697F2403F070
:106FA00010030293029BF9F797FA0122032303A926
:106FB0000D48039403AC04920693F9F78DF900F0A1
:106FC000ABF8FFF7BBFEFEF79BFB0FCD0FC42B68A2
:106FD00003A800212360FBF70FFF054B1860FBF7A8
:106FE00005FFFEE70010024000080140C8750008D8
:106FF000541F00200268034B9A4200D07047F9F7F3
:10700000A7B800BF00080040FEE700BF30B501464A
:1070100089B000221E20F9F7ADF81E20F9F7E0F83C
:10702000154B01A9DA6903A842F00402DA61DB69B1
:10703000124D03F004030293029BFAF7FBFAFAF7EE
:10704000E9FA002240F2E7314300A5FB03030C4CB0
:107050000C4D9B0C013B204663602560E160226182
:10706000A260FAF78DFB10B1012009B030BD2046B7
:10707000FAF7D8FB09B030BD0010024083DE1B4395
:10708000581F002000080040704700BFFEE700BF07
:10709000FEE700BFFEE700BFFEE700BF704700BF8E
:1070A000FBF714BF0148F9F729BC00BFBC21002041
:1070B0000148FAF7CBBB00BF581F00200148FAF780
:1070C000BDBC00BF141F002030B44FF41F054FF0AB
:1070D00000640E4B0E4A19680E4841F00101196018
:1070E00059680A405A601A6822F0847222F4803289
:1070F0001A601A6822F480221A605A6822F4FE028A
:107100005A609D60846030BC704700BF0010024030
:107110000000FFF800ED00E010B5094C0022204609
:107120000849FBF7D1FA20460749FBF7E3FA204666
:107130000649FBF7C1FA2046BDE81040FBF7E2BA6A
:10714000981F0020BC00002004000020AC0000209C
:1071500002680E4B9A4200D0704703F5DA33D869C3
:1071600000B540F40000D861DB6983B003F400038C
:107170000022052101931420019BF8F7FBFF142046
:10718000F9F72EF803B05DF804FB00BF005C004087
:1071900000F22C41D0F85C04FBF7CCBA00EB4113B1
:1071A000D3F83C22D0F85C04FBF7F4BA00EB4113AF
:1071B000DA6BD0F85C04FBF723BB00BFD0F85C04AB
:1071C000FBF7A6BB10B504460121D0F85C04FBF721
:1071D00089FBD4F85C04BDE81040FBF763BB00BF3B
:1071E00010B50446D0F85C04FBF780FBA36923B11B
:1071F000024A136943F00603136110BD00ED00E07D
:10720000D0F85C04FBF77CBBF8B500220826022509
:1072100003211A4B1A4FC3F85C040446C0F820320D
:1072200018461F605E609D60D9609A61DA611A62DB
:10723000F9F756F920B14FF497711248FFF7E4FEC1
:10724000002218231146D4F82002F9F7FDFE582336
:1072500000228021D4F82002F9F7F6FE98230022BC
:107260008121D4F82002F9F7EFFED4F82002D823C8
:1072700000220121F9F7E8FE0020F8BDBC21002022
:10728000005C00401476000808B5D0F82002F9F739
:107290001DFB03289ABF024B185C022008BD00BFEB
:1072A0001076000810B51C46D0F82002134622467E
:1072B000F9F7FCFD03289ABF014B185C022010BDB2
:1072C0001076000808B5D0F82002F9F719FE032857
:1072D0009ABF024B185C022008BD00BF1076000860
:1072E00008B5D0F82002F9F75DFE03289ABF024BDB
:1072F000185C022008BD00BF1076000808B5D0F861
:107300002002F9F77BFE03289ABF024B185C02208B
:1073100008BD00BF107600080A06D0F8203204D459
:1073200003EB411393F82A02704701F07F0103EB4E
:10733000411393F82A00704708B5D0F82002F9F7F6
:10734000A1FD03289ABF024B185C022008BD00BFB4
:107350001076000808B5D0F82002F9F70DFE0328D2
:107360009ABF024B185C022008BD00BF10760008CF
:1073700008B5D0F82002F9F7E7FD03289ABF024BC1
:10738000185C022008BD00BF107600080048704756
:107390005C0E0020704700BF704700BF00207047A0
:1073A0001378072B35D02DE9F041204B204C1B885A
:1073B0002188CB1A9BB2202B30D01E4D1E4B288823
:1073C00002F1400603EB8013D2F80080D2F804C02B
:1073D000D2F808E0D7681032B242C3F80080C3F890
:1073E00004C0C3F808E0DF6003F11003ECD1013002
:1073F00080B2202808BF0023104A14BF28802B80A9
:1074000010684B1C01212380FBF710FD0020BDE814
:10741000F08101220A4B00201A707047074B80212F
:107420001868FBF703FD0020BDE8F081080F00207D
:10743000020F0020000F0020100F0020541F00201A
:10744000FC0E00200020704708B50A46014604489B
:10745000FBF71AF90122034B40B21A7008BD00BFB6
:10746000981F0020060F0020122301480B80704750
:10747000D8000020042301480B807047EC00002056
:1074800010B5044C0A4604482146FBF743FC20464D
:1074900010BD00BF1C2600205476000810B5044C17
:1074A0000A4604482146FBF735FC204610BD00BFC4
:1074B0001C2600206876000810B5044C0A460448D3
:1074C0002146FBF727FC204610BD00BF1C260020EC
:1074D0007476000810B5044C0A4604482146FBF7B0
:1074E00019FC204610BD00BF1C260020287600088D
:1074F00010B5044C0A4604482146FBF70BFC204615
:1075000010BD00BF1C2600203C760008002103E0CF
:107510000B4B5B58435004310A480B4B42189A42BC
:10752000F6D30A4A02E0002342F8043B084B9A4291
:10753000F9D3FFF7C9FD00F00FF8FFF70FFD704713
:107540008C76000800000020F0000020F0000020F1
:107550001C280020FEE7000070B500250C4E0D4CE5
:10756000A41BA410A54209D100F01AF800250A4E68
:107570000A4CA41BA410A54205D170BD56F82530B5
:1075800098470135EEE756F8253098470135F2E780
:1075900084760008847600088476000888760008DF
:1075A000F8B500BFF8BC08BC9E467047F8B500BFF0
:0875B000F8BC08BC9E467047C0
:1075B80002030405060708090A0B0C0D0E0F10102C
:1075C800EC750008916D0008000000000000000044
:1075D8008000000049444C4500000000322E302E47
:1075E80030000000484944305F54687265616400A7
:1075F800000000000000000001020304060708095B
:107608000000000001020304000201022E2E5C5358
:1076180072635C757362645F636F6E662E630000ED
:10762800437573746F6D2048494420436F6E6669D3
:1076380067000000437573746F6D20484944204902
:107648006E746572666163650000000053544D698D
:1076580063726F656C656374726F6E696373000043
:10766800434D5349532D44415000000030303030D1
:0C76780030303030303031410000000074
:0476840035010008C4
:0476880011010008E4
:10768C00010000003D2600080926000839250008E5
:10769C0000000000DD240008CD240008112500089E
:1076AC00000000000000000000000000C1240008E1
:1076BC00C1240008C124000805250008090229007E
:1076CC00010100C03209040000020300000009217E
:1076DC00110100012221000705810340000107056B
:1076EC0001034000010000000921110100012221C9
:1076FC00000000000A06000200000040010000002B
:10770C00AAAAAAAA00A24A040600FF0901A101150F
:10771C000026FF007508954009018102954009017A
:10772C00910295010901B102C000000088000020FF
:10773C00457400089D730008A17300086974000863
:10774C0075740008817400089D740008B9740008F1
:10775C00D5740008F174000812010002000000400A
:10776C0083045057000201020301000004030904C2
:040000050800750D6D
:00000001FF
